{"contracts/Redemption.sol":{"Redemption":{"abi":[{"inputs":[],"stateMutability":"nonpayable","type":"constructor"},{"anonymous":false,"inputs":[{"indexed":false,"internalType":"uint8","name":"version","type":"uint8"}],"name":"Initialized","type":"event"},{"anonymous":false,"inputs":[{"indexed":true,"internalType":"address","name":"previousOwner","type":"address"},{"indexed":true,"internalType":"address","name":"newOwner","type":"address"}],"name":"OwnershipTransferred","type":"event"},{"anonymous":false,"inputs":[{"indexed":true,"internalType":"address","name":"user","type":"address"},{"indexed":false,"internalType":"uint256","name":"amount","type":"uint256"},{"indexed":false,"internalType":"uint256","name":"timestamp","type":"uint256"}],"name":"RedemptionRequested","type":"event"},{"inputs":[],"name":"altGoldToken","outputs":[{"internalType":"contract IERC20Upgradeable","name":"","type":"address"}],"stateMutability":"view","type":"function"},{"inputs":[],"name":"altGoldTokenBalanceofContract","outputs":[{"internalType":"uint256","name":"","type":"uint256"}],"stateMutability":"view","type":"function"},{"inputs":[],"name":"dailyRedemptionLimit","outputs":[{"internalType":"uint256","name":"","type":"uint256"}],"stateMutability":"view","type":"function"},{"inputs":[{"internalType":"address","name":"","type":"address"},{"internalType":"uint256","name":"","type":"uint256"}],"name":"dailyUserRedemptions","outputs":[{"internalType":"uint256","name":"","type":"uint256"}],"stateMutability":"view","type":"function"},{"inputs":[{"internalType":"contract IERC20Upgradeable","name":"_altGoldToken","type":"address"},{"internalType":"contract IERC20Upgradeable","name":"_usdcToken","type":"address"}],"name":"initialize","outputs":[],"stateMutability":"nonpayable","type":"function"},{"inputs":[],"name":"owner","outputs":[{"internalType":"address","name":"","type":"address"}],"stateMutability":"view","type":"function"},{"inputs":[{"internalType":"uint256","name":"amount","type":"uint256"}],"name":"redeem","outputs":[],"stateMutability":"nonpayable","type":"function"},{"inputs":[],"name":"redemptionFee","outputs":[{"internalType":"uint256","name":"","type":"uint256"}],"stateMutability":"view","type":"function"},{"inputs":[],"name":"redemptionRate","outputs":[{"internalType":"uint256","name":"","type":"uint256"}],"stateMutability":"view","type":"function"},{"inputs":[],"name":"renounceOwnership","outputs":[],"stateMutability":"nonpayable","type":"function"},{"inputs":[{"internalType":"contract IERC20Upgradeable","name":"_altGoldToken","type":"address"}],"name":"setAltGoldToken","outputs":[],"stateMutability":"nonpayable","type":"function"},{"inputs":[{"internalType":"contract IERC20Upgradeable","name":"_usdcToken","type":"address"}],"name":"setusdcToken","outputs":[],"stateMutability":"nonpayable","type":"function"},{"inputs":[],"name":"totalFeesCollected","outputs":[{"internalType":"uint256","name":"","type":"uint256"}],"stateMutability":"view","type":"function"},{"inputs":[],"name":"totalRedeemed","outputs":[{"internalType":"uint256","name":"","type":"uint256"}],"stateMutability":"view","type":"function"},{"inputs":[{"internalType":"address","name":"newOwner","type":"address"}],"name":"transferOwnership","outputs":[],"stateMutability":"nonpayable","type":"function"},{"inputs":[],"name":"treasury","outputs":[{"internalType":"address","name":"","type":"address"}],"stateMutability":"view","type":"function"},{"inputs":[],"name":"usdcToken","outputs":[{"internalType":"contract IERC20Upgradeable","name":"","type":"address"}],"stateMutability":"view","type":"function"},{"inputs":[],"name":"usdcTokenBalanceofContract","outputs":[{"internalType":"uint256","name":"","type":"uint256"}],"stateMutability":"view","type":"function"},{"inputs":[{"internalType":"address","name":"","type":"address"}],"name":"userTotalRedeemed","outputs":[{"internalType":"uint256","name":"","type":"uint256"}],"stateMutability":"view","type":"function"},{"inputs":[{"internalType":"uint256","name":"amount","type":"uint256"}],"name":"withdrawAltGold","outputs":[],"stateMutability":"nonpayable","type":"function"},{"inputs":[{"internalType":"uint256","name":"amount","type":"uint256"}],"name":"withdrawusdcToken","outputs":[],"stateMutability":"nonpayable","type":"function"}],"devdoc":{"events":{"Initialized(uint8)":{"details":"Triggered when the contract has been initialized or reinitialized."}},"kind":"dev","methods":{"constructor":{"custom:oz-upgrades-unsafe-allow":"constructor"},"owner()":{"details":"Returns the address of the current owner."},"renounceOwnership()":{"details":"Leaves the contract without owner. It will not be possible to call `onlyOwner` functions. Can only be called by the current owner. NOTE: Renouncing ownership will leave the contract without an owner, thereby disabling any functionality that is only available to the owner."},"transferOwnership(address)":{"details":"Transfers ownership of the contract to a new account (`newOwner`). Can only be called by the current owner."}},"stateVariables":{"dailyRedemptionLimit":{"details":"Daily redemption limit per user (default: 1000 ALTGOLD)"},"dailyUserRedemptions":{"details":"Mapping to track daily redemption limits per user"},"redemptionFee":{"details":"Fee charged on redemptions (in basis points)"},"redemptionRate":{"details":"Current redemption rate (USDC per ALT GOLD in basis points)"},"totalFeesCollected":{"details":"Total fees collected in USDC"},"totalRedeemed":{"details":"Total amount of ALTGOLD redeemed"},"treasury":{"details":"Treasury address to collect fees"},"userTotalRedeemed":{"details":"Mapping to track user redemption history for compliance"}},"version":1},"evm":{"bytecode":{"linkReferences":{},"object":"608060405234801561001057600080fd5b5061001961001e565b6100dd565b600054610100900460ff161561008a5760405162461bcd60e51b815260206004820152602760248201527f496e697469616c697a61626c653a20636f6e747261637420697320696e697469604482015266616c697a696e6760c81b606482015260840160405180910390fd5b60005460ff908116146100db576000805460ff191660ff9081179091556040519081527f7f26b83ff96e1f2b6a682f133852f6798a09c465da95921460cefb38474024989060200160405180910390a15b565b610b0d806100ec6000396000f3fe608060405234801561001057600080fd5b50600436106101375760003560e01c8063840f0958116100b8578063db006a751161007c578063db006a7514610253578063de5794e914610266578063e071250514610279578063e4c1390e14610281578063f2fde38b146102ac578063f35dad40146102bf57600080fd5b8063840f0958146102005780638503c26d146102135780638da5cb5b1461021c5780639e077ef91461022d578063cd3c51221461024057600080fd5b8063540385a3116100ff578063540385a3146101cb578063569cc565146101d457806360c6d8ae146101dc57806361d027b3146101e5578063715018a6146101f857600080fd5b806311eac8551461013c578063458f58151461016c578063485cc955146101835780635234d4601461019857806353726e54146101b8575b600080fd5b60665461014f906001600160a01b031681565b6040516001600160a01b0390911681526020015b60405180910390f35b61017560685481565b604051908152602001610163565b6101966101913660046109af565b6102c8565b005b6101756101a63660046109e8565b606b6020526000908152604090205481565b60655461014f906001600160a01b031681565b61017560675481565b610175610410565b610175606a5481565b606e5461014f906001600160a01b031681565b610196610483565b61019661020e3660046109e8565b610497565b610175606d5481565b6033546001600160a01b031661014f565b61019661023b366004610a0c565b6104c1565b61019661024e366004610a0c565b610543565b610196610261366004610a0c565b610582565b6101966102743660046109e8565b6107bb565b6101756107e5565b61017561028f366004610a25565b606c60209081526000928352604080842090915290825290205481565b6101966102ba3660046109e8565b610816565b61017560695481565b600054610100900460ff16158080156102e85750600054600160ff909116105b806103025750303b158015610302575060005460ff166001145b61036a5760405162461bcd60e51b815260206004820152602e60248201527f496e697469616c697a61626c653a20636f6e747261637420697320616c72656160448201526d191e481a5b9a5d1a585b1a5e995960921b60648201526084015b60405180910390fd5b6000805460ff19166001179055801561038d576000805461ff0019166101001790555b606580546001600160a01b038086166001600160a01b03199283161790925560668054928516929091169190911790556103c561088f565b801561040b576000805461ff0019169055604051600181527f7f26b83ff96e1f2b6a682f133852f6798a09c465da95921460cefb38474024989060200160405180910390a15b505050565b6066546040516370a0823160e01b81523060048201526000916001600160a01b0316906370a08231906024015b602060405180830381865afa15801561045a573d6000803e3d6000fd5b505050506040513d601f19601f8201168201806040525081019061047e9190610a51565b905090565b61048b6108be565b6104956000610918565b565b61049f6108be565b606680546001600160a01b0319166001600160a01b0392909216919091179055565b6104c96108be565b60665460405163a9059cbb60e01b8152336004820152602481018390526001600160a01b039091169063a9059cbb906044015b6020604051808303816000875af115801561051b573d6000803e3d6000fd5b505050506040513d601f19601f8201168201806040525081019061053f9190610a6a565b5050565b61054b6108be565b60655460405163a9059cbb60e01b8152336004820152602481018390526001600160a01b039091169063a9059cbb906044016104fc565b600081116105d25760405162461bcd60e51b815260206004820181905260248201527f416d6f756e74206d7573742062652067726561746572207468616e207a65726f6044820152606401610361565b6065546040516370a0823160e01b815233600482015282916001600160a01b0316906370a0823190602401602060405180830381865afa15801561061a573d6000803e3d6000fd5b505050506040513d601f19601f8201168201806040525081019061063e9190610a51565b101561068c5760405162461bcd60e51b815260206004820152601d60248201527f496e73756666696369656e7420414c5420474f4c442062616c616e63650000006044820152606401610361565b6065546040516323b872dd60e01b8152336004820152306024820152604481018390526001600160a01b03909116906323b872dd906064016020604051808303816000875af11580156106e3573d6000803e3d6000fd5b505050506040513d601f19601f820116820180604052508101906107079190610a6a565b5060665460405163a9059cbb60e01b8152336004820152602481018390526001600160a01b039091169063a9059cbb906044016020604051808303816000875af1158015610759573d6000803e3d6000fd5b505050506040513d601f19601f8201168201806040525081019061077d9190610a6a565b506040805182815242602082015233917f46949ee51143d5b58e4df83122d6c382a04f7bffbe563f78cd7fa61ee519ec08910160405180910390a250565b6107c36108be565b606580546001600160a01b0319166001600160a01b0392909216919091179055565b6065546040516370a0823160e01b81523060048201526000916001600160a01b0316906370a082319060240161043d565b61081e6108be565b6001600160a01b0381166108835760405162461bcd60e51b815260206004820152602660248201527f4f776e61626c653a206e6577206f776e657220697320746865207a65726f206160448201526564647265737360d01b6064820152608401610361565b61088c81610918565b50565b600054610100900460ff166108b65760405162461bcd60e51b815260040161036190610a8c565b61049561096a565b6033546001600160a01b031633146104955760405162461bcd60e51b815260206004820181905260248201527f4f776e61626c653a2063616c6c6572206973206e6f7420746865206f776e65726044820152606401610361565b603380546001600160a01b038381166001600160a01b0319831681179093556040519116919082907f8be0079c531659141344cd1fd0a4f28419497f9722a3daafe3b4186f6b6457e090600090a35050565b600054610100900460ff166109915760405162461bcd60e51b815260040161036190610a8c565b61049533610918565b6001600160a01b038116811461088c57600080fd5b600080604083850312156109c257600080fd5b82356109cd8161099a565b915060208301356109dd8161099a565b809150509250929050565b6000602082840312156109fa57600080fd5b8135610a058161099a565b9392505050565b600060208284031215610a1e57600080fd5b5035919050565b60008060408385031215610a3857600080fd5b8235610a438161099a565b946020939093013593505050565b600060208284031215610a6357600080fd5b5051919050565b600060208284031215610a7c57600080fd5b81518015158114610a0557600080fd5b6020808252602b908201527f496e697469616c697a61626c653a20636f6e7472616374206973206e6f74206960408201526a6e697469616c697a696e6760a81b60608201526080019056fea26469706673582212209161868933eb35943c7a9db13e8953a11aede5f0e082658c57ca4727cd3c9f8864736f6c63430008130033","opcodes":"PUSH1 0x80 PUSH1 0x40 MSTORE CALLVALUE DUP1 ISZERO PUSH2 0x10 JUMPI PUSH1 0x0 DUP1 REVERT JUMPDEST POP PUSH2 0x19 PUSH2 0x1E JUMP JUMPDEST PUSH2 0xDD JUMP JUMPDEST PUSH1 0x0 SLOAD PUSH2 0x100 SWAP1 DIV PUSH1 0xFF AND ISZERO PUSH2 0x8A JUMPI PUSH1 0x40 MLOAD PUSH3 0x461BCD PUSH1 0xE5 SHL DUP2 MSTORE PUSH1 0x20 PUSH1 0x4 DUP3 ADD MSTORE PUSH1 0x27 PUSH1 0x24 DUP3 ADD MSTORE PUSH32 0x496E697469616C697A61626C653A20636F6E747261637420697320696E697469 PUSH1 0x44 DUP3 ADD MSTORE PUSH7 0x616C697A696E67 PUSH1 0xC8 SHL PUSH1 0x64 DUP3 ADD MSTORE PUSH1 0x84 ADD PUSH1 0x40 MLOAD DUP1 SWAP2 SUB SWAP1 REVERT JUMPDEST PUSH1 0x0 SLOAD PUSH1 0xFF SWAP1 DUP2 AND EQ PUSH2 0xDB JUMPI PUSH1 0x0 DUP1 SLOAD PUSH1 0xFF NOT AND PUSH1 0xFF SWAP1 DUP2 OR SWAP1 SWAP2 SSTORE PUSH1 0x40 MLOAD SWAP1 DUP2 MSTORE PUSH32 0x7F26B83FF96E1F2B6A682F133852F6798A09C465DA95921460CEFB3847402498 SWAP1 PUSH1 0x20 ADD PUSH1 0x40 MLOAD DUP1 SWAP2 SUB SWAP1 LOG1 JUMPDEST JUMP JUMPDEST PUSH2 0xB0D DUP1 PUSH2 0xEC PUSH1 0x0 CODECOPY PUSH1 0x0 RETURN INVALID PUSH1 0x80 PUSH1 0x40 MSTORE CALLVALUE DUP1 ISZERO PUSH2 0x10 JUMPI PUSH1 0x0 DUP1 REVERT JUMPDEST POP PUSH1 0x4 CALLDATASIZE LT PUSH2 0x137 JUMPI PUSH1 0x0 CALLDATALOAD PUSH1 0xE0 SHR DUP1 PUSH4 0x840F0958 GT PUSH2 0xB8 JUMPI DUP1 PUSH4 0xDB006A75 GT PUSH2 0x7C JUMPI DUP1 PUSH4 0xDB006A75 EQ PUSH2 0x253 JUMPI DUP1 PUSH4 0xDE5794E9 EQ PUSH2 0x266 JUMPI DUP1 PUSH4 0xE0712505 EQ PUSH2 0x279 JUMPI DUP1 PUSH4 0xE4C1390E EQ PUSH2 0x281 JUMPI DUP1 PUSH4 0xF2FDE38B EQ PUSH2 0x2AC JUMPI DUP1 PUSH4 0xF35DAD40 EQ PUSH2 0x2BF JUMPI PUSH1 0x0 DUP1 REVERT JUMPDEST DUP1 PUSH4 0x840F0958 EQ PUSH2 0x200 JUMPI DUP1 PUSH4 0x8503C26D EQ PUSH2 0x213 JUMPI DUP1 PUSH4 0x8DA5CB5B EQ PUSH2 0x21C JUMPI DUP1 PUSH4 0x9E077EF9 EQ PUSH2 0x22D JUMPI DUP1 PUSH4 0xCD3C5122 EQ PUSH2 0x240 JUMPI PUSH1 0x0 DUP1 REVERT JUMPDEST DUP1 PUSH4 0x540385A3 GT PUSH2 0xFF JUMPI DUP1 PUSH4 0x540385A3 EQ PUSH2 0x1CB JUMPI DUP1 PUSH4 0x569CC565 EQ PUSH2 0x1D4 JUMPI DUP1 PUSH4 0x60C6D8AE EQ PUSH2 0x1DC JUMPI DUP1 PUSH4 0x61D027B3 EQ PUSH2 0x1E5 JUMPI DUP1 PUSH4 0x715018A6 EQ PUSH2 0x1F8 JUMPI PUSH1 0x0 DUP1 REVERT JUMPDEST DUP1 PUSH4 0x11EAC855 EQ PUSH2 0x13C JUMPI DUP1 PUSH4 0x458F5815 EQ PUSH2 0x16C JUMPI DUP1 PUSH4 0x485CC955 EQ PUSH2 0x183 JUMPI DUP1 PUSH4 0x5234D460 EQ PUSH2 0x198 JUMPI DUP1 PUSH4 0x53726E54 EQ PUSH2 0x1B8 JUMPI JUMPDEST PUSH1 0x0 DUP1 REVERT JUMPDEST PUSH1 0x66 SLOAD PUSH2 0x14F SWAP1 PUSH1 0x1 PUSH1 0x1 PUSH1 0xA0 SHL SUB AND DUP2 JUMP JUMPDEST PUSH1 0x40 MLOAD PUSH1 0x1 PUSH1 0x1 PUSH1 0xA0 SHL SUB SWAP1 SWAP2 AND DUP2 MSTORE PUSH1 0x20 ADD JUMPDEST PUSH1 0x40 MLOAD DUP1 SWAP2 SUB SWAP1 RETURN JUMPDEST PUSH2 0x175 PUSH1 0x68 SLOAD DUP2 JUMP JUMPDEST PUSH1 0x40 MLOAD SWAP1 DUP2 MSTORE PUSH1 0x20 ADD PUSH2 0x163 JUMP JUMPDEST PUSH2 0x196 PUSH2 0x191 CALLDATASIZE PUSH1 0x4 PUSH2 0x9AF JUMP JUMPDEST PUSH2 0x2C8 JUMP JUMPDEST STOP JUMPDEST PUSH2 0x175 PUSH2 0x1A6 CALLDATASIZE PUSH1 0x4 PUSH2 0x9E8 JUMP JUMPDEST PUSH1 0x6B PUSH1 0x20 MSTORE PUSH1 0x0 SWAP1 DUP2 MSTORE PUSH1 0x40 SWAP1 KECCAK256 SLOAD DUP2 JUMP JUMPDEST PUSH1 0x65 SLOAD PUSH2 0x14F SWAP1 PUSH1 0x1 PUSH1 0x1 PUSH1 0xA0 SHL SUB AND DUP2 JUMP JUMPDEST PUSH2 0x175 PUSH1 0x67 SLOAD DUP2 JUMP JUMPDEST PUSH2 0x175 PUSH2 0x410 JUMP JUMPDEST PUSH2 0x175 PUSH1 0x6A SLOAD DUP2 JUMP JUMPDEST PUSH1 0x6E SLOAD PUSH2 0x14F SWAP1 PUSH1 0x1 PUSH1 0x1 PUSH1 0xA0 SHL SUB AND DUP2 JUMP JUMPDEST PUSH2 0x196 PUSH2 0x483 JUMP JUMPDEST PUSH2 0x196 PUSH2 0x20E CALLDATASIZE PUSH1 0x4 PUSH2 0x9E8 JUMP JUMPDEST PUSH2 0x497 JUMP JUMPDEST PUSH2 0x175 PUSH1 0x6D SLOAD DUP2 JUMP JUMPDEST PUSH1 0x33 SLOAD PUSH1 0x1 PUSH1 0x1 PUSH1 0xA0 SHL SUB AND PUSH2 0x14F JUMP JUMPDEST PUSH2 0x196 PUSH2 0x23B CALLDATASIZE PUSH1 0x4 PUSH2 0xA0C JUMP JUMPDEST PUSH2 0x4C1 JUMP JUMPDEST PUSH2 0x196 PUSH2 0x24E CALLDATASIZE PUSH1 0x4 PUSH2 0xA0C JUMP JUMPDEST PUSH2 0x543 JUMP JUMPDEST PUSH2 0x196 PUSH2 0x261 CALLDATASIZE PUSH1 0x4 PUSH2 0xA0C JUMP JUMPDEST PUSH2 0x582 JUMP JUMPDEST PUSH2 0x196 PUSH2 0x274 CALLDATASIZE PUSH1 0x4 PUSH2 0x9E8 JUMP JUMPDEST PUSH2 0x7BB JUMP JUMPDEST PUSH2 0x175 PUSH2 0x7E5 JUMP JUMPDEST PUSH2 0x175 PUSH2 0x28F CALLDATASIZE PUSH1 0x4 PUSH2 0xA25 JUMP JUMPDEST PUSH1 0x6C PUSH1 0x20 SWAP1 DUP2 MSTORE PUSH1 0x0 SWAP3 DUP4 MSTORE PUSH1 0x40 DUP1 DUP5 KECCAK256 SWAP1 SWAP2 MSTORE SWAP1 DUP3 MSTORE SWAP1 KECCAK256 SLOAD DUP2 JUMP JUMPDEST PUSH2 0x196 PUSH2 0x2BA CALLDATASIZE PUSH1 0x4 PUSH2 0x9E8 JUMP JUMPDEST PUSH2 0x816 JUMP JUMPDEST PUSH2 0x175 PUSH1 0x69 SLOAD DUP2 JUMP JUMPDEST PUSH1 0x0 SLOAD PUSH2 0x100 SWAP1 DIV PUSH1 0xFF AND ISZERO DUP1 DUP1 ISZERO PUSH2 0x2E8 JUMPI POP PUSH1 0x0 SLOAD PUSH1 0x1 PUSH1 0xFF SWAP1 SWAP2 AND LT JUMPDEST DUP1 PUSH2 0x302 JUMPI POP ADDRESS EXTCODESIZE ISZERO DUP1 ISZERO PUSH2 0x302 JUMPI POP PUSH1 0x0 SLOAD PUSH1 0xFF AND PUSH1 0x1 EQ JUMPDEST PUSH2 0x36A JUMPI PUSH1 0x40 MLOAD PUSH3 0x461BCD PUSH1 0xE5 SHL DUP2 MSTORE PUSH1 0x20 PUSH1 0x4 DUP3 ADD MSTORE PUSH1 0x2E PUSH1 0x24 DUP3 ADD MSTORE PUSH32 0x496E697469616C697A61626C653A20636F6E747261637420697320616C726561 PUSH1 0x44 DUP3 ADD MSTORE PUSH14 0x191E481A5B9A5D1A585B1A5E9959 PUSH1 0x92 SHL PUSH1 0x64 DUP3 ADD MSTORE PUSH1 0x84 ADD JUMPDEST PUSH1 0x40 MLOAD DUP1 SWAP2 SUB SWAP1 REVERT JUMPDEST PUSH1 0x0 DUP1 SLOAD PUSH1 0xFF NOT AND PUSH1 0x1 OR SWAP1 SSTORE DUP1 ISZERO PUSH2 0x38D JUMPI PUSH1 0x0 DUP1 SLOAD PUSH2 0xFF00 NOT AND PUSH2 0x100 OR SWAP1 SSTORE JUMPDEST PUSH1 0x65 DUP1 SLOAD PUSH1 0x1 PUSH1 0x1 PUSH1 0xA0 SHL SUB DUP1 DUP7 AND PUSH1 0x1 PUSH1 0x1 PUSH1 0xA0 SHL SUB NOT SWAP3 DUP4 AND OR SWAP1 SWAP3 SSTORE PUSH1 0x66 DUP1 SLOAD SWAP3 DUP6 AND SWAP3 SWAP1 SWAP2 AND SWAP2 SWAP1 SWAP2 OR SWAP1 SSTORE PUSH2 0x3C5 PUSH2 0x88F JUMP JUMPDEST DUP1 ISZERO PUSH2 0x40B JUMPI PUSH1 0x0 DUP1 SLOAD PUSH2 0xFF00 NOT AND SWAP1 SSTORE PUSH1 0x40 MLOAD PUSH1 0x1 DUP2 MSTORE PUSH32 0x7F26B83FF96E1F2B6A682F133852F6798A09C465DA95921460CEFB3847402498 SWAP1 PUSH1 0x20 ADD PUSH1 0x40 MLOAD DUP1 SWAP2 SUB SWAP1 LOG1 JUMPDEST POP POP POP JUMP JUMPDEST PUSH1 0x66 SLOAD PUSH1 0x40 MLOAD PUSH4 0x70A08231 PUSH1 0xE0 SHL DUP2 MSTORE ADDRESS PUSH1 0x4 DUP3 ADD MSTORE PUSH1 0x0 SWAP2 PUSH1 0x1 PUSH1 0x1 PUSH1 0xA0 SHL SUB AND SWAP1 PUSH4 0x70A08231 SWAP1 PUSH1 0x24 ADD JUMPDEST PUSH1 0x20 PUSH1 0x40 MLOAD DUP1 DUP4 SUB DUP2 DUP7 GAS STATICCALL ISZERO DUP1 ISZERO PUSH2 0x45A JUMPI RETURNDATASIZE PUSH1 0x0 DUP1 RETURNDATACOPY RETURNDATASIZE PUSH1 0x0 REVERT JUMPDEST POP POP POP POP PUSH1 0x40 MLOAD RETURNDATASIZE PUSH1 0x1F NOT PUSH1 0x1F DUP3 ADD AND DUP3 ADD DUP1 PUSH1 0x40 MSTORE POP DUP2 ADD SWAP1 PUSH2 0x47E SWAP2 SWAP1 PUSH2 0xA51 JUMP JUMPDEST SWAP1 POP SWAP1 JUMP JUMPDEST PUSH2 0x48B PUSH2 0x8BE JUMP JUMPDEST PUSH2 0x495 PUSH1 0x0 PUSH2 0x918 JUMP JUMPDEST JUMP JUMPDEST PUSH2 0x49F PUSH2 0x8BE JUMP JUMPDEST PUSH1 0x66 DUP1 SLOAD PUSH1 0x1 PUSH1 0x1 PUSH1 0xA0 SHL SUB NOT AND PUSH1 0x1 PUSH1 0x1 PUSH1 0xA0 SHL SUB SWAP3 SWAP1 SWAP3 AND SWAP2 SWAP1 SWAP2 OR SWAP1 SSTORE JUMP JUMPDEST PUSH2 0x4C9 PUSH2 0x8BE JUMP JUMPDEST PUSH1 0x66 SLOAD PUSH1 0x40 MLOAD PUSH4 0xA9059CBB PUSH1 0xE0 SHL DUP2 MSTORE CALLER PUSH1 0x4 DUP3 ADD MSTORE PUSH1 0x24 DUP2 ADD DUP4 SWAP1 MSTORE PUSH1 0x1 PUSH1 0x1 PUSH1 0xA0 SHL SUB SWAP1 SWAP2 AND SWAP1 PUSH4 0xA9059CBB SWAP1 PUSH1 0x44 ADD JUMPDEST PUSH1 0x20 PUSH1 0x40 MLOAD DUP1 DUP4 SUB DUP2 PUSH1 0x0 DUP8 GAS CALL ISZERO DUP1 ISZERO PUSH2 0x51B JUMPI RETURNDATASIZE PUSH1 0x0 DUP1 RETURNDATACOPY RETURNDATASIZE PUSH1 0x0 REVERT JUMPDEST POP POP POP POP PUSH1 0x40 MLOAD RETURNDATASIZE PUSH1 0x1F NOT PUSH1 0x1F DUP3 ADD AND DUP3 ADD DUP1 PUSH1 0x40 MSTORE POP DUP2 ADD SWAP1 PUSH2 0x53F SWAP2 SWAP1 PUSH2 0xA6A JUMP JUMPDEST POP POP JUMP JUMPDEST PUSH2 0x54B PUSH2 0x8BE JUMP JUMPDEST PUSH1 0x65 SLOAD PUSH1 0x40 MLOAD PUSH4 0xA9059CBB PUSH1 0xE0 SHL DUP2 MSTORE CALLER PUSH1 0x4 DUP3 ADD MSTORE PUSH1 0x24 DUP2 ADD DUP4 SWAP1 MSTORE PUSH1 0x1 PUSH1 0x1 PUSH1 0xA0 SHL SUB SWAP1 SWAP2 AND SWAP1 PUSH4 0xA9059CBB SWAP1 PUSH1 0x44 ADD PUSH2 0x4FC JUMP JUMPDEST PUSH1 0x0 DUP2 GT PUSH2 0x5D2 JUMPI PUSH1 0x40 MLOAD PUSH3 0x461BCD PUSH1 0xE5 SHL DUP2 MSTORE PUSH1 0x20 PUSH1 0x4 DUP3 ADD DUP2 SWAP1 MSTORE PUSH1 0x24 DUP3 ADD MSTORE PUSH32 0x416D6F756E74206D7573742062652067726561746572207468616E207A65726F PUSH1 0x44 DUP3 ADD MSTORE PUSH1 0x64 ADD PUSH2 0x361 JUMP JUMPDEST PUSH1 0x65 SLOAD PUSH1 0x40 MLOAD PUSH4 0x70A08231 PUSH1 0xE0 SHL DUP2 MSTORE CALLER PUSH1 0x4 DUP3 ADD MSTORE DUP3 SWAP2 PUSH1 0x1 PUSH1 0x1 PUSH1 0xA0 SHL SUB AND SWAP1 PUSH4 0x70A08231 SWAP1 PUSH1 0x24 ADD PUSH1 0x20 PUSH1 0x40 MLOAD DUP1 DUP4 SUB DUP2 DUP7 GAS STATICCALL ISZERO DUP1 ISZERO PUSH2 0x61A JUMPI RETURNDATASIZE PUSH1 0x0 DUP1 RETURNDATACOPY RETURNDATASIZE PUSH1 0x0 REVERT JUMPDEST POP POP POP POP PUSH1 0x40 MLOAD RETURNDATASIZE PUSH1 0x1F NOT PUSH1 0x1F DUP3 ADD AND DUP3 ADD DUP1 PUSH1 0x40 MSTORE POP DUP2 ADD SWAP1 PUSH2 0x63E SWAP2 SWAP1 PUSH2 0xA51 JUMP JUMPDEST LT ISZERO PUSH2 0x68C JUMPI PUSH1 0x40 MLOAD PUSH3 0x461BCD PUSH1 0xE5 SHL DUP2 MSTORE PUSH1 0x20 PUSH1 0x4 DUP3 ADD MSTORE PUSH1 0x1D PUSH1 0x24 DUP3 ADD MSTORE PUSH32 0x496E73756666696369656E7420414C5420474F4C442062616C616E6365000000 PUSH1 0x44 DUP3 ADD MSTORE PUSH1 0x64 ADD PUSH2 0x361 JUMP JUMPDEST PUSH1 0x65 SLOAD PUSH1 0x40 MLOAD PUSH4 0x23B872DD PUSH1 0xE0 SHL DUP2 MSTORE CALLER PUSH1 0x4 DUP3 ADD MSTORE ADDRESS PUSH1 0x24 DUP3 ADD MSTORE PUSH1 0x44 DUP2 ADD DUP4 SWAP1 MSTORE PUSH1 0x1 PUSH1 0x1 PUSH1 0xA0 SHL SUB SWAP1 SWAP2 AND SWAP1 PUSH4 0x23B872DD SWAP1 PUSH1 0x64 ADD PUSH1 0x20 PUSH1 0x40 MLOAD DUP1 DUP4 SUB DUP2 PUSH1 0x0 DUP8 GAS CALL ISZERO DUP1 ISZERO PUSH2 0x6E3 JUMPI RETURNDATASIZE PUSH1 0x0 DUP1 RETURNDATACOPY RETURNDATASIZE PUSH1 0x0 REVERT JUMPDEST POP POP POP POP PUSH1 0x40 MLOAD RETURNDATASIZE PUSH1 0x1F NOT PUSH1 0x1F DUP3 ADD AND DUP3 ADD DUP1 PUSH1 0x40 MSTORE POP DUP2 ADD SWAP1 PUSH2 0x707 SWAP2 SWAP1 PUSH2 0xA6A JUMP JUMPDEST POP PUSH1 0x66 SLOAD PUSH1 0x40 MLOAD PUSH4 0xA9059CBB PUSH1 0xE0 SHL DUP2 MSTORE CALLER PUSH1 0x4 DUP3 ADD MSTORE PUSH1 0x24 DUP2 ADD DUP4 SWAP1 MSTORE PUSH1 0x1 PUSH1 0x1 PUSH1 0xA0 SHL SUB SWAP1 SWAP2 AND SWAP1 PUSH4 0xA9059CBB SWAP1 PUSH1 0x44 ADD PUSH1 0x20 PUSH1 0x40 MLOAD DUP1 DUP4 SUB DUP2 PUSH1 0x0 DUP8 GAS CALL ISZERO DUP1 ISZERO PUSH2 0x759 JUMPI RETURNDATASIZE PUSH1 0x0 DUP1 RETURNDATACOPY RETURNDATASIZE PUSH1 0x0 REVERT JUMPDEST POP POP POP POP PUSH1 0x40 MLOAD RETURNDATASIZE PUSH1 0x1F NOT PUSH1 0x1F DUP3 ADD AND DUP3 ADD DUP1 PUSH1 0x40 MSTORE POP DUP2 ADD SWAP1 PUSH2 0x77D SWAP2 SWAP1 PUSH2 0xA6A JUMP JUMPDEST POP PUSH1 0x40 DUP1 MLOAD DUP3 DUP2 MSTORE TIMESTAMP PUSH1 0x20 DUP3 ADD MSTORE CALLER SWAP2 PUSH32 0x46949EE51143D5B58E4DF83122D6C382A04F7BFFBE563F78CD7FA61EE519EC08 SWAP2 ADD PUSH1 0x40 MLOAD DUP1 SWAP2 SUB SWAP1 LOG2 POP JUMP JUMPDEST PUSH2 0x7C3 PUSH2 0x8BE JUMP JUMPDEST PUSH1 0x65 DUP1 SLOAD PUSH1 0x1 PUSH1 0x1 PUSH1 0xA0 SHL SUB NOT AND PUSH1 0x1 PUSH1 0x1 PUSH1 0xA0 SHL SUB SWAP3 SWAP1 SWAP3 AND SWAP2 SWAP1 SWAP2 OR SWAP1 SSTORE JUMP JUMPDEST PUSH1 0x65 SLOAD PUSH1 0x40 MLOAD PUSH4 0x70A08231 PUSH1 0xE0 SHL DUP2 MSTORE ADDRESS PUSH1 0x4 DUP3 ADD MSTORE PUSH1 0x0 SWAP2 PUSH1 0x1 PUSH1 0x1 PUSH1 0xA0 SHL SUB AND SWAP1 PUSH4 0x70A08231 SWAP1 PUSH1 0x24 ADD PUSH2 0x43D JUMP JUMPDEST PUSH2 0x81E PUSH2 0x8BE JUMP JUMPDEST PUSH1 0x1 PUSH1 0x1 PUSH1 0xA0 SHL SUB DUP2 AND PUSH2 0x883 JUMPI PUSH1 0x40 MLOAD PUSH3 0x461BCD PUSH1 0xE5 SHL DUP2 MSTORE PUSH1 0x20 PUSH1 0x4 DUP3 ADD MSTORE PUSH1 0x26 PUSH1 0x24 DUP3 ADD MSTORE PUSH32 0x4F776E61626C653A206E6577206F776E657220697320746865207A65726F2061 PUSH1 0x44 DUP3 ADD MSTORE PUSH6 0x646472657373 PUSH1 0xD0 SHL PUSH1 0x64 DUP3 ADD MSTORE PUSH1 0x84 ADD PUSH2 0x361 JUMP JUMPDEST PUSH2 0x88C DUP2 PUSH2 0x918 JUMP JUMPDEST POP JUMP JUMPDEST PUSH1 0x0 SLOAD PUSH2 0x100 SWAP1 DIV PUSH1 0xFF AND PUSH2 0x8B6 JUMPI PUSH1 0x40 MLOAD PUSH3 0x461BCD PUSH1 0xE5 SHL DUP2 MSTORE PUSH1 0x4 ADD PUSH2 0x361 SWAP1 PUSH2 0xA8C JUMP JUMPDEST PUSH2 0x495 PUSH2 0x96A JUMP JUMPDEST PUSH1 0x33 SLOAD PUSH1 0x1 PUSH1 0x1 PUSH1 0xA0 SHL SUB AND CALLER EQ PUSH2 0x495 JUMPI PUSH1 0x40 MLOAD PUSH3 0x461BCD PUSH1 0xE5 SHL DUP2 MSTORE PUSH1 0x20 PUSH1 0x4 DUP3 ADD DUP2 SWAP1 MSTORE PUSH1 0x24 DUP3 ADD MSTORE PUSH32 0x4F776E61626C653A2063616C6C6572206973206E6F7420746865206F776E6572 PUSH1 0x44 DUP3 ADD MSTORE PUSH1 0x64 ADD PUSH2 0x361 JUMP JUMPDEST PUSH1 0x33 DUP1 SLOAD PUSH1 0x1 PUSH1 0x1 PUSH1 0xA0 SHL SUB DUP4 DUP2 AND PUSH1 0x1 PUSH1 0x1 PUSH1 0xA0 SHL SUB NOT DUP4 AND DUP2 OR SWAP1 SWAP4 SSTORE PUSH1 0x40 MLOAD SWAP2 AND SWAP2 SWAP1 DUP3 SWAP1 PUSH32 0x8BE0079C531659141344CD1FD0A4F28419497F9722A3DAAFE3B4186F6B6457E0 SWAP1 PUSH1 0x0 SWAP1 LOG3 POP POP JUMP JUMPDEST PUSH1 0x0 SLOAD PUSH2 0x100 SWAP1 DIV PUSH1 0xFF AND PUSH2 0x991 JUMPI PUSH1 0x40 MLOAD PUSH3 0x461BCD PUSH1 0xE5 SHL DUP2 MSTORE PUSH1 0x4 ADD PUSH2 0x361 SWAP1 PUSH2 0xA8C JUMP JUMPDEST PUSH2 0x495 CALLER PUSH2 0x918 JUMP JUMPDEST PUSH1 0x1 PUSH1 0x1 PUSH1 0xA0 SHL SUB DUP2 AND DUP2 EQ PUSH2 0x88C JUMPI PUSH1 0x0 DUP1 REVERT JUMPDEST PUSH1 0x0 DUP1 PUSH1 0x40 DUP4 DUP6 SUB SLT ISZERO PUSH2 0x9C2 JUMPI PUSH1 0x0 DUP1 REVERT JUMPDEST DUP3 CALLDATALOAD PUSH2 0x9CD DUP2 PUSH2 0x99A JUMP JUMPDEST SWAP2 POP PUSH1 0x20 DUP4 ADD CALLDATALOAD PUSH2 0x9DD DUP2 PUSH2 0x99A JUMP JUMPDEST DUP1 SWAP2 POP POP SWAP3 POP SWAP3 SWAP1 POP JUMP JUMPDEST PUSH1 0x0 PUSH1 0x20 DUP3 DUP5 SUB SLT ISZERO PUSH2 0x9FA JUMPI PUSH1 0x0 DUP1 REVERT JUMPDEST DUP2 CALLDATALOAD PUSH2 0xA05 DUP2 PUSH2 0x99A JUMP JUMPDEST SWAP4 SWAP3 POP POP POP JUMP JUMPDEST PUSH1 0x0 PUSH1 0x20 DUP3 DUP5 SUB SLT ISZERO PUSH2 0xA1E JUMPI PUSH1 0x0 DUP1 REVERT JUMPDEST POP CALLDATALOAD SWAP2 SWAP1 POP JUMP JUMPDEST PUSH1 0x0 DUP1 PUSH1 0x40 DUP4 DUP6 SUB SLT ISZERO PUSH2 0xA38 JUMPI PUSH1 0x0 DUP1 REVERT JUMPDEST DUP3 CALLDATALOAD PUSH2 0xA43 DUP2 PUSH2 0x99A JUMP JUMPDEST SWAP5 PUSH1 0x20 SWAP4 SWAP1 SWAP4 ADD CALLDATALOAD SWAP4 POP POP POP JUMP JUMPDEST PUSH1 0x0 PUSH1 0x20 DUP3 DUP5 SUB SLT ISZERO PUSH2 0xA63 JUMPI PUSH1 0x0 DUP1 REVERT JUMPDEST POP MLOAD SWAP2 SWAP1 POP JUMP JUMPDEST PUSH1 0x0 PUSH1 0x20 DUP3 DUP5 SUB SLT ISZERO PUSH2 0xA7C JUMPI PUSH1 0x0 DUP1 REVERT JUMPDEST DUP2 MLOAD DUP1 ISZERO ISZERO DUP2 EQ PUSH2 0xA05 JUMPI PUSH1 0x0 DUP1 REVERT JUMPDEST PUSH1 0x20 DUP1 DUP3 MSTORE PUSH1 0x2B SWAP1 DUP3 ADD MSTORE PUSH32 0x496E697469616C697A61626C653A20636F6E7472616374206973206E6F742069 PUSH1 0x40 DUP3 ADD MSTORE PUSH11 0x6E697469616C697A696E67 PUSH1 0xA8 SHL PUSH1 0x60 DUP3 ADD MSTORE PUSH1 0x80 ADD SWAP1 JUMP INVALID LOG2 PUSH5 0x6970667358 0x22 SLT KECCAK256 SWAP2 PUSH2 0x8689 CALLER 0xEB CALLDATALOAD SWAP5 EXTCODECOPY PUSH27 0x9DB13E8953A11AEDE5F0E082658C57CA4727CD3C9F8864736F6C63 NUMBER STOP ADDMOD SGT STOP CALLER "},"methodIdentifiers":{"altGoldToken()":"53726e54","altGoldTokenBalanceofContract()":"e0712505","dailyRedemptionLimit()":"8503c26d","dailyUserRedemptions(address,uint256)":"e4c1390e","initialize(address,address)":"485cc955","owner()":"8da5cb5b","redeem(uint256)":"db006a75","redemptionFee()":"458f5815","redemptionRate()":"540385a3","renounceOwnership()":"715018a6","setAltGoldToken(address)":"de5794e9","setusdcToken(address)":"840f0958","totalFeesCollected()":"60c6d8ae","totalRedeemed()":"f35dad40","transferOwnership(address)":"f2fde38b","treasury()":"61d027b3","usdcToken()":"11eac855","usdcTokenBalanceofContract()":"569cc565","userTotalRedeemed(address)":"5234d460","withdrawAltGold(uint256)":"cd3c5122","withdrawusdcToken(uint256)":"9e077ef9"}},"storageLayout":{"storage":[{"astId":505,"contract":"contracts/Redemption.sol:Redemption","label":"_initialized","offset":0,"slot":"0","type":"t_uint8"},{"astId":508,"contract":"contracts/Redemption.sol:Redemption","label":"_initializing","offset":1,"slot":"0","type":"t_bool"},{"astId":2093,"contract":"contracts/Redemption.sol:Redemption","label":"__gap","offset":0,"slot":"1","type":"t_array(t_uint256)50_storage"},{"astId":11,"contract":"contracts/Redemption.sol:Redemption","label":"_owner","offset":0,"slot":"51","type":"t_address"},{"astId":131,"contract":"contracts/Redemption.sol:Redemption","label":"__gap","offset":0,"slot":"52","type":"t_array(t_uint256)49_storage"},{"astId":3262,"contract":"contracts/Redemption.sol:Redemption","label":"altGoldToken","offset":0,"slot":"101","type":"t_contract(IERC20Upgradeable)1623"},{"astId":3265,"contract":"contracts/Redemption.sol:Redemption","label":"usdcToken","offset":0,"slot":"102","type":"t_contract(IERC20Upgradeable)1623"},{"astId":3268,"contract":"contracts/Redemption.sol:Redemption","label":"redemptionRate","offset":0,"slot":"103","type":"t_uint256"},{"astId":3271,"contract":"contracts/Redemption.sol:Redemption","label":"redemptionFee","offset":0,"slot":"104","type":"t_uint256"},{"astId":3274,"contract":"contracts/Redemption.sol:Redemption","label":"totalRedeemed","offset":0,"slot":"105","type":"t_uint256"},{"astId":3277,"contract":"contracts/Redemption.sol:Redemption","label":"totalFeesCollected","offset":0,"slot":"106","type":"t_uint256"},{"astId":3282,"contract":"contracts/Redemption.sol:Redemption","label":"userTotalRedeemed","offset":0,"slot":"107","type":"t_mapping(t_address,t_uint256)"},{"astId":3289,"contract":"contracts/Redemption.sol:Redemption","label":"dailyUserRedemptions","offset":0,"slot":"108","type":"t_mapping(t_address,t_mapping(t_uint256,t_uint256))"},{"astId":3292,"contract":"contracts/Redemption.sol:Redemption","label":"dailyRedemptionLimit","offset":0,"slot":"109","type":"t_uint256"},{"astId":3295,"contract":"contracts/Redemption.sol:Redemption","label":"treasury","offset":0,"slot":"110","type":"t_address"}],"types":{"t_address":{"encoding":"inplace","label":"address","numberOfBytes":"20"},"t_array(t_uint256)49_storage":{"base":"t_uint256","encoding":"inplace","label":"uint256[49]","numberOfBytes":"1568"},"t_array(t_uint256)50_storage":{"base":"t_uint256","encoding":"inplace","label":"uint256[50]","numberOfBytes":"1600"},"t_bool":{"encoding":"inplace","label":"bool","numberOfBytes":"1"},"t_contract(IERC20Upgradeable)1623":{"encoding":"inplace","label":"contract IERC20Upgradeable","numberOfBytes":"20"},"t_mapping(t_address,t_mapping(t_uint256,t_uint256))":{"encoding":"mapping","key":"t_address","label":"mapping(address => mapping(uint256 => uint256))","numberOfBytes":"32","value":"t_mapping(t_uint256,t_uint256)"},"t_mapping(t_address,t_uint256)":{"encoding":"mapping","key":"t_address","label":"mapping(address => uint256)","numberOfBytes":"32","value":"t_uint256"},"t_mapping(t_uint256,t_uint256)":{"encoding":"mapping","key":"t_uint256","label":"mapping(uint256 => uint256)","numberOfBytes":"32","value":"t_uint256"},"t_uint256":{"encoding":"inplace","label":"uint256","numberOfBytes":"32"},"t_uint8":{"encoding":"inplace","label":"uint8","numberOfBytes":"1"}}},"userdoc":{"kind":"user","methods":{"redemptionFee()":{"notice":"Default: 0.5% (50 basis points)"},"redemptionRate()":{"notice":"Default: 1 ALT GOLD = 50 USDC (5000 basis points)"}},"version":1}}}}