{
  "_format": "hh-sol-artifact-1",
  "contractName": "Redemption",
  "sourceName": "contracts/Redemption.sol",
  "abi": [
    {
      "inputs": [],
      "stateMutability": "nonpayable",
      "type": "constructor"
    },
    {
      "anonymous": false,
      "inputs": [
        {
          "indexed": false,
          "internalType": "uint8",
          "name": "version",
          "type": "uint8"
        }
      ],
      "name": "Initialized",
      "type": "event"
    },
    {
      "anonymous": false,
      "inputs": [
        {
          "indexed": true,
          "internalType": "address",
          "name": "previousOwner",
          "type": "address"
        },
        {
          "indexed": true,
          "internalType": "address",
          "name": "newOwner",
          "type": "address"
        }
      ],
      "name": "OwnershipTransferred",
      "type": "event"
    },
    {
      "anonymous": false,
      "inputs": [
        {
          "indexed": true,
          "internalType": "address",
          "name": "user",
          "type": "address"
        },
        {
          "indexed": false,
          "internalType": "uint256",
          "name": "amount",
          "type": "uint256"
        },
        {
          "indexed": false,
          "internalType": "uint256",
          "name": "timestamp",
          "type": "uint256"
        }
      ],
      "name": "RedemptionRequested",
      "type": "event"
    },
    {
      "inputs": [
        {
          "internalType": "uint256",
          "name": "amount",
          "type": "uint256"
        }
      ],
      "name": "addUsdtTocontract",
      "outputs": [],
      "stateMutability": "nonpayable",
      "type": "function"
    },
    {
      "inputs": [],
      "name": "altGoldToken",
      "outputs": [
        {
          "internalType": "contract IALTGold",
          "name": "",
          "type": "address"
        }
      ],
      "stateMutability": "view",
      "type": "function"
    },
    {
      "inputs": [],
      "name": "altGoldTokenBalanceofContract",
      "outputs": [
        {
          "internalType": "uint256",
          "name": "",
          "type": "uint256"
        }
      ],
      "stateMutability": "view",
      "type": "function"
    },
    {
      "inputs": [],
      "name": "getTotalRedeemed",
      "outputs": [
        {
          "internalType": "uint256",
          "name": "",
          "type": "uint256"
        }
      ],
      "stateMutability": "view",
      "type": "function"
    },
    {
      "inputs": [
        {
          "internalType": "address",
          "name": "user",
          "type": "address"
        }
      ],
      "name": "getUserTotalRedeemed",
      "outputs": [
        {
          "internalType": "uint256",
          "name": "",
          "type": "uint256"
        }
      ],
      "stateMutability": "view",
      "type": "function"
    },
    {
      "inputs": [
        {
          "internalType": "address",
          "name": "_altGoldToken",
          "type": "address"
        },
        {
          "internalType": "address",
          "name": "_usdcToken",
          "type": "address"
        },
        {
          "internalType": "uint256",
          "name": "_RedemptionLimit",
          "type": "uint256"
        }
      ],
      "name": "initialize",
      "outputs": [],
      "stateMutability": "nonpayable",
      "type": "function"
    },
    {
      "inputs": [],
      "name": "owner",
      "outputs": [
        {
          "internalType": "address",
          "name": "",
          "type": "address"
        }
      ],
      "stateMutability": "view",
      "type": "function"
    },
    {
      "inputs": [
        {
          "internalType": "uint256",
          "name": "amount",
          "type": "uint256"
        }
      ],
      "name": "redeemGoldForUSDC",
      "outputs": [],
      "stateMutability": "nonpayable",
      "type": "function"
    },
    {
      "inputs": [],
      "name": "renounceOwnership",
      "outputs": [],
      "stateMutability": "nonpayable",
      "type": "function"
    },
    {
      "inputs": [
        {
          "internalType": "address",
          "name": "_altGoldToken",
          "type": "address"
        }
      ],
      "name": "setAltGoldToken",
      "outputs": [],
      "stateMutability": "nonpayable",
      "type": "function"
    },
    {
      "inputs": [
        {
          "internalType": "uint256",
          "name": "_totalRedemptionLimit",
          "type": "uint256"
        }
      ],
      "name": "setTotalRedemptionLimit",
      "outputs": [],
      "stateMutability": "nonpayable",
      "type": "function"
    },
    {
      "inputs": [
        {
          "internalType": "contract IERC20Upgradeable",
          "name": "_usdcToken",
          "type": "address"
        }
      ],
      "name": "setusdcToken",
      "outputs": [],
      "stateMutability": "nonpayable",
      "type": "function"
    },
    {
      "inputs": [],
      "name": "totalRedeemed",
      "outputs": [
        {
          "internalType": "uint256",
          "name": "",
          "type": "uint256"
        }
      ],
      "stateMutability": "view",
      "type": "function"
    },
    {
      "inputs": [],
      "name": "totalRedemptionLimit",
      "outputs": [
        {
          "internalType": "uint256",
          "name": "",
          "type": "uint256"
        }
      ],
      "stateMutability": "view",
      "type": "function"
    },
    {
      "inputs": [
        {
          "internalType": "address",
          "name": "newOwner",
          "type": "address"
        }
      ],
      "name": "transferOwnership",
      "outputs": [],
      "stateMutability": "nonpayable",
      "type": "function"
    },
    {
      "inputs": [],
      "name": "usdcToken",
      "outputs": [
        {
          "internalType": "contract IERC20Upgradeable",
          "name": "",
          "type": "address"
        }
      ],
      "stateMutability": "view",
      "type": "function"
    },
    {
      "inputs": [],
      "name": "usdcTokenBalanceofContract",
      "outputs": [
        {
          "internalType": "uint256",
          "name": "",
          "type": "uint256"
        }
      ],
      "stateMutability": "view",
      "type": "function"
    },
    {
      "inputs": [
        {
          "internalType": "address",
          "name": "",
          "type": "address"
        }
      ],
      "name": "userTotalRedeemed",
      "outputs": [
        {
          "internalType": "uint256",
          "name": "",
          "type": "uint256"
        }
      ],
      "stateMutability": "view",
      "type": "function"
    },
    {
      "inputs": [
        {
          "internalType": "uint256",
          "name": "amount",
          "type": "uint256"
        }
      ],
      "name": "withdrawAltGold",
      "outputs": [],
      "stateMutability": "nonpayable",
      "type": "function"
    },
    {
      "inputs": [
        {
          "internalType": "uint256",
          "name": "amount",
          "type": "uint256"
        }
      ],
      "name": "withdrawusdcToken",
      "outputs": [],
      "stateMutability": "nonpayable",
      "type": "function"
    }
  ],
  "bytecode": "0x608060405234801561001057600080fd5b5061001961001e565b6100dd565b600054610100900460ff161561008a5760405162461bcd60e51b815260206004820152602760248201527f496e697469616c697a61626c653a20636f6e747261637420697320696e697469604482015266616c697a696e6760c81b606482015260840160405180910390fd5b60005460ff908116146100db576000805460ff191660ff9081179091556040519081527f7f26b83ff96e1f2b6a682f133852f6798a09c465da95921460cefb38474024989060200160405180910390a15b565b6110ae806100ec6000396000f3fe608060405234801561001057600080fd5b506004361061012c5760003560e01c8063840f0958116100ad578063d749f57f11610071578063d749f57f1461026d578063de5794e914610280578063e071250514610293578063f2fde38b1461029b578063f35dad40146102ae57600080fd5b8063840f0958146101fa5780638da5cb5b1461020d5780639d4be2bd1461021e5780639e077ef914610247578063cd3c51221461025a57600080fd5b80635234d460116100f45780635234d460146101a457806353726e54146101c4578063569cc565146101d7578063715018a6146101df5780637d2da440146101e757600080fd5b806311eac855146101315780631794bb3c146101615780632ca208e9146101765780632e3e40ed146101885780633d8bec4214610191575b600080fd5b609854610144906001600160a01b031681565b6040516001600160a01b0390911681526020015b60405180910390f35b61017461016f366004610f1b565b6102b7565b005b6099545b604051908152602001610158565b61017a609b5481565b61017461019f366004610f5c565b61041d565b61017a6101b2366004610f75565b609a6020526000908152604090205481565b609754610144906001600160a01b031681565b61017a61043d565b6101746104b0565b6101746101f5366004610f5c565b6104c4565b610174610208366004610f75565b6105dd565b6033546001600160a01b0316610144565b61017a61022c366004610f75565b6001600160a01b03166000908152609a602052604090205490565b610174610255366004610f5c565b610607565b610174610268366004610f5c565b6106e2565b61017461027b366004610f5c565b610783565b61017461028e366004610f75565b610c74565b61017a610c9e565b6101746102a9366004610f75565b610ccf565b61017a60995481565b600054610100900460ff16158080156102d75750600054600160ff909116105b806102f15750303b1580156102f1575060005460ff166001145b6103595760405162461bcd60e51b815260206004820152602e60248201527f496e697469616c697a61626c653a20636f6e747261637420697320616c72656160448201526d191e481a5b9a5d1a585b1a5e995960921b60648201526084015b60405180910390fd5b6000805460ff19166001179055801561037c576000805461ff0019166101001790555b609780546001600160a01b038087166001600160a01b03199283161790925560988054928616929091169190911790556103be82670de0b6b3a7640000610faf565b609b556103c9610d45565b6103d1610d74565b8015610417576000805461ff0019169055604051600181527f7f26b83ff96e1f2b6a682f133852f6798a09c465da95921460cefb38474024989060200160405180910390a15b50505050565b610425610da3565b61043781670de0b6b3a7640000610faf565b609b5550565b6098546040516370a0823160e01b81523060048201526000916001600160a01b0316906370a08231906024015b602060405180830381865afa158015610487573d6000803e3d6000fd5b505050506040513d601f19601f820116820180604052508101906104ab9190610fcc565b905090565b6104b8610da3565b6104c26000610dfd565b565b6104cc610da3565b6000811161051c5760405162461bcd60e51b815260206004820181905260248201527f416d6f756e74206d7573742062652067726561746572207468616e207a65726f6044820152606401610350565b6098546040516323b872dd60e01b8152336004820152306024820152604481018390526001600160a01b03909116906323b872dd906064016020604051808303816000875af1158015610573573d6000803e3d6000fd5b505050506040513d601f19601f820116820180604052508101906105979190610fe5565b6105da5760405162461bcd60e51b81526020600482015260146024820152731554d110c81d1c985b9cd9995c8819985a5b195960621b6044820152606401610350565b50565b6105e5610da3565b609880546001600160a01b0319166001600160a01b0392909216919091179055565b61060f610da3565b808061061961043d565b10156106675760405162461bcd60e51b815260206004820152601d60248201527f496e73756666696369656e74205553444320696e20636f6e74726163740000006044820152606401610350565b60985460405163a9059cbb60e01b8152336004820152602481018490526001600160a01b039091169063a9059cbb906044015b6020604051808303816000875af11580156106b9573d6000803e3d6000fd5b505050506040513d601f19601f820116820180604052508101906106dd9190610fe5565b505050565b6106ea610da3565b80806106f4610c9e565b101561074c5760405162461bcd60e51b815260206004820152602160248201527f496e73756666696369656e7420414c5420474f4c4420696e20636f6e747261636044820152601d60fa1b6064820152608401610350565b60975460405163a9059cbb60e01b8152336004820152602481018490526001600160a01b039091169063a9059cbb9060440161069a565b61078b610e4f565b600081116107db5760405162461bcd60e51b815260206004820181905260248201527f416d6f756e74206d7573742062652067726561746572207468616e207a65726f6044820152606401610350565b609b5481111561082d5760405162461bcd60e51b815260206004820152601f60248201527f416d6f756e74206578636565647320726564656d7074696f6e206c696d6974006044820152606401610350565b6097546040516370a0823160e01b815233600482015282916001600160a01b0316906370a0823190602401602060405180830381865afa158015610875573d6000803e3d6000fd5b505050506040513d601f19601f820116820180604052508101906108999190610fcc565b10156108e75760405162461bcd60e51b815260206004820152601d60248201527f496e73756666696369656e7420414c5420474f4c442062616c616e63650000006044820152606401610350565b609754604051633af32abf60e01b81523360048201526001600160a01b0390911690633af32abf90602401602060405180830381865afa15801561092f573d6000803e3d6000fd5b505050506040513d601f19601f820116820180604052508101906109539190610fe5565b6109ab5760405162461bcd60e51b815260206004820152602360248201527f55736572206e6f742077686974656c697374656420666f7220726564656d707460448201526234b7b760e91b6064820152608401610350565b6098546040516370a0823160e01b815230600482015282916001600160a01b0316906370a0823190602401602060405180830381865afa1580156109f3573d6000803e3d6000fd5b505050506040513d601f19601f82011682018060405250810190610a179190610fcc565b1015610a655760405162461bcd60e51b815260206004820152601d60248201527f496e73756666696369656e74205553444320696e20636f6e74726163740000006044820152606401610350565b6097546040516323b872dd60e01b8152336004820152306024820152604481018390526001600160a01b03909116906323b872dd906064016020604051808303816000875af1158015610abc573d6000803e3d6000fd5b505050506040513d601f19601f82011682018060405250810190610ae09190610fe5565b610b245760405162461bcd60e51b8152602060048201526015602482015274151bdad95b881d1c985b9cd9995c8819985a5b1959605a1b6044820152606401610350565b60985460405163a9059cbb60e01b8152336004820152602481018390526001600160a01b039091169063a9059cbb906044016020604051808303816000875af1158015610b75573d6000803e3d6000fd5b505050506040513d601f19601f82011682018060405250810190610b999190610fe5565b610bdc5760405162461bcd60e51b81526020600482015260146024820152731554d110c81d1c985b9cd9995c8819985a5b195960621b6044820152606401610350565b8060996000828254610bee9190611007565b9091555050336000908152609a602052604081208054839290610c12908490611007565b925050819055508060996000828254610c2b919061101a565b90915550506040805182815242602082015233917f46949ee51143d5b58e4df83122d6c382a04f7bffbe563f78cd7fa61ee519ec08910160405180910390a26105da6001606555565b610c7c610da3565b609780546001600160a01b0319166001600160a01b0392909216919091179055565b6097546040516370a0823160e01b81523060048201526000916001600160a01b0316906370a082319060240161046a565b610cd7610da3565b6001600160a01b038116610d3c5760405162461bcd60e51b815260206004820152602660248201527f4f776e61626c653a206e6577206f776e657220697320746865207a65726f206160448201526564647265737360d01b6064820152608401610350565b6105da81610dfd565b600054610100900460ff16610d6c5760405162461bcd60e51b81526004016103509061102d565b6104c2610eaf565b600054610100900460ff16610d9b5760405162461bcd60e51b81526004016103509061102d565b6104c2610edf565b6033546001600160a01b031633146104c25760405162461bcd60e51b815260206004820181905260248201527f4f776e61626c653a2063616c6c6572206973206e6f7420746865206f776e65726044820152606401610350565b603380546001600160a01b038381166001600160a01b0319831681179093556040519116919082907f8be0079c531659141344cd1fd0a4f28419497f9722a3daafe3b4186f6b6457e090600090a35050565b600260655403610ea15760405162461bcd60e51b815260206004820152601f60248201527f5265656e7472616e637947756172643a207265656e7472616e742063616c6c006044820152606401610350565b6002606555565b6001606555565b600054610100900460ff16610ed65760405162461bcd60e51b81526004016103509061102d565b6104c233610dfd565b600054610100900460ff16610ea85760405162461bcd60e51b81526004016103509061102d565b6001600160a01b03811681146105da57600080fd5b600080600060608486031215610f3057600080fd5b8335610f3b81610f06565b92506020840135610f4b81610f06565b929592945050506040919091013590565b600060208284031215610f6e57600080fd5b5035919050565b600060208284031215610f8757600080fd5b8135610f9281610f06565b9392505050565b634e487b7160e01b600052601160045260246000fd5b8082028115828204841417610fc657610fc6610f99565b92915050565b600060208284031215610fde57600080fd5b5051919050565b600060208284031215610ff757600080fd5b81518015158114610f9257600080fd5b80820180821115610fc657610fc6610f99565b81810381811115610fc657610fc6610f99565b6020808252602b908201527f496e697469616c697a61626c653a20636f6e7472616374206973206e6f74206960408201526a6e697469616c697a696e6760a81b60608201526080019056fea264697066735822122051ed043177ffa754784e207250ef55090d21bfb414e9724994f647997fdfab6564736f6c63430008130033",
  "linkReferences": {},
  "deployedLinkReferences": {}
}