{
  "_format": "hh-sol-artifact-1",
  "contractName": "Redemption",
  "sourceName": "contracts/Redemption.sol",
  "abi": [
    {
      "inputs": [],
      "stateMutability": "nonpayable",
      "type": "constructor"
    },
    {
      "anonymous": false,
      "inputs": [
        {
          "indexed": false,
          "internalType": "uint8",
          "name": "version",
          "type": "uint8"
        }
      ],
      "name": "Initialized",
      "type": "event"
    },
    {
      "anonymous": false,
      "inputs": [
        {
          "indexed": true,
          "internalType": "address",
          "name": "previousOwner",
          "type": "address"
        },
        {
          "indexed": true,
          "internalType": "address",
          "name": "newOwner",
          "type": "address"
        }
      ],
      "name": "OwnershipTransferred",
      "type": "event"
    },
    {
      "anonymous": false,
      "inputs": [
        {
          "indexed": true,
          "internalType": "address",
          "name": "user",
          "type": "address"
        },
        {
          "indexed": false,
          "internalType": "uint256",
          "name": "amount",
          "type": "uint256"
        },
        {
          "indexed": false,
          "internalType": "uint256",
          "name": "timestamp",
          "type": "uint256"
        }
      ],
      "name": "RedemptionRequested",
      "type": "event"
    },
    {
      "inputs": [],
      "name": "altGoldToken",
      "outputs": [
        {
          "internalType": "contract IERC20Upgradeable",
          "name": "",
          "type": "address"
        }
      ],
      "stateMutability": "view",
      "type": "function"
    },
    {
      "inputs": [],
      "name": "altGoldTokenBalanceofContract",
      "outputs": [
        {
          "internalType": "uint256",
          "name": "",
          "type": "uint256"
        }
      ],
      "stateMutability": "view",
      "type": "function"
    },
    {
      "inputs": [],
      "name": "dailyRedemptionLimit",
      "outputs": [
        {
          "internalType": "uint256",
          "name": "",
          "type": "uint256"
        }
      ],
      "stateMutability": "view",
      "type": "function"
    },
    {
      "inputs": [
        {
          "internalType": "address",
          "name": "",
          "type": "address"
        },
        {
          "internalType": "uint256",
          "name": "",
          "type": "uint256"
        }
      ],
      "name": "dailyUserRedemptions",
      "outputs": [
        {
          "internalType": "uint256",
          "name": "",
          "type": "uint256"
        }
      ],
      "stateMutability": "view",
      "type": "function"
    },
    {
      "inputs": [
        {
          "internalType": "contract IERC20Upgradeable",
          "name": "_altGoldToken",
          "type": "address"
        },
        {
          "internalType": "contract IERC20Upgradeable",
          "name": "_usdcToken",
          "type": "address"
        }
      ],
      "name": "initialize",
      "outputs": [],
      "stateMutability": "nonpayable",
      "type": "function"
    },
    {
      "inputs": [],
      "name": "owner",
      "outputs": [
        {
          "internalType": "address",
          "name": "",
          "type": "address"
        }
      ],
      "stateMutability": "view",
      "type": "function"
    },
    {
      "inputs": [
        {
          "internalType": "uint256",
          "name": "amount",
          "type": "uint256"
        }
      ],
      "name": "redeem",
      "outputs": [],
      "stateMutability": "nonpayable",
      "type": "function"
    },
    {
      "inputs": [],
      "name": "redemptionFee",
      "outputs": [
        {
          "internalType": "uint256",
          "name": "",
          "type": "uint256"
        }
      ],
      "stateMutability": "view",
      "type": "function"
    },
    {
      "inputs": [],
      "name": "redemptionRate",
      "outputs": [
        {
          "internalType": "uint256",
          "name": "",
          "type": "uint256"
        }
      ],
      "stateMutability": "view",
      "type": "function"
    },
    {
      "inputs": [],
      "name": "renounceOwnership",
      "outputs": [],
      "stateMutability": "nonpayable",
      "type": "function"
    },
    {
      "inputs": [
        {
          "internalType": "contract IERC20Upgradeable",
          "name": "_altGoldToken",
          "type": "address"
        }
      ],
      "name": "setAltGoldToken",
      "outputs": [],
      "stateMutability": "nonpayable",
      "type": "function"
    },
    {
      "inputs": [
        {
          "internalType": "contract IERC20Upgradeable",
          "name": "_usdcToken",
          "type": "address"
        }
      ],
      "name": "setusdcToken",
      "outputs": [],
      "stateMutability": "nonpayable",
      "type": "function"
    },
    {
      "inputs": [],
      "name": "totalFeesCollected",
      "outputs": [
        {
          "internalType": "uint256",
          "name": "",
          "type": "uint256"
        }
      ],
      "stateMutability": "view",
      "type": "function"
    },
    {
      "inputs": [],
      "name": "totalRedeemed",
      "outputs": [
        {
          "internalType": "uint256",
          "name": "",
          "type": "uint256"
        }
      ],
      "stateMutability": "view",
      "type": "function"
    },
    {
      "inputs": [
        {
          "internalType": "address",
          "name": "newOwner",
          "type": "address"
        }
      ],
      "name": "transferOwnership",
      "outputs": [],
      "stateMutability": "nonpayable",
      "type": "function"
    },
    {
      "inputs": [],
      "name": "treasury",
      "outputs": [
        {
          "internalType": "address",
          "name": "",
          "type": "address"
        }
      ],
      "stateMutability": "view",
      "type": "function"
    },
    {
      "inputs": [],
      "name": "usdcToken",
      "outputs": [
        {
          "internalType": "contract IERC20Upgradeable",
          "name": "",
          "type": "address"
        }
      ],
      "stateMutability": "view",
      "type": "function"
    },
    {
      "inputs": [],
      "name": "usdcTokenBalanceofContract",
      "outputs": [
        {
          "internalType": "uint256",
          "name": "",
          "type": "uint256"
        }
      ],
      "stateMutability": "view",
      "type": "function"
    },
    {
      "inputs": [
        {
          "internalType": "address",
          "name": "",
          "type": "address"
        }
      ],
      "name": "userTotalRedeemed",
      "outputs": [
        {
          "internalType": "uint256",
          "name": "",
          "type": "uint256"
        }
      ],
      "stateMutability": "view",
      "type": "function"
    },
    {
      "inputs": [
        {
          "internalType": "uint256",
          "name": "amount",
          "type": "uint256"
        }
      ],
      "name": "withdrawAltGold",
      "outputs": [],
      "stateMutability": "nonpayable",
      "type": "function"
    },
    {
      "inputs": [
        {
          "internalType": "uint256",
          "name": "amount",
          "type": "uint256"
        }
      ],
      "name": "withdrawusdcToken",
      "outputs": [],
      "stateMutability": "nonpayable",
      "type": "function"
    }
  ],
  "bytecode": "0x608060405234801561001057600080fd5b5061001961001e565b6100dd565b600054610100900460ff161561008a5760405162461bcd60e51b815260206004820152602760248201527f496e697469616c697a61626c653a20636f6e747261637420697320696e697469604482015266616c697a696e6760c81b606482015260840160405180910390fd5b60005460ff908116146100db576000805460ff191660ff9081179091556040519081527f7f26b83ff96e1f2b6a682f133852f6798a09c465da95921460cefb38474024989060200160405180910390a15b565b610b0d806100ec6000396000f3fe608060405234801561001057600080fd5b50600436106101375760003560e01c8063840f0958116100b8578063db006a751161007c578063db006a7514610253578063de5794e914610266578063e071250514610279578063e4c1390e14610281578063f2fde38b146102ac578063f35dad40146102bf57600080fd5b8063840f0958146102005780638503c26d146102135780638da5cb5b1461021c5780639e077ef91461022d578063cd3c51221461024057600080fd5b8063540385a3116100ff578063540385a3146101cb578063569cc565146101d457806360c6d8ae146101dc57806361d027b3146101e5578063715018a6146101f857600080fd5b806311eac8551461013c578063458f58151461016c578063485cc955146101835780635234d4601461019857806353726e54146101b8575b600080fd5b60665461014f906001600160a01b031681565b6040516001600160a01b0390911681526020015b60405180910390f35b61017560685481565b604051908152602001610163565b6101966101913660046109af565b6102c8565b005b6101756101a63660046109e8565b606b6020526000908152604090205481565b60655461014f906001600160a01b031681565b61017560675481565b610175610410565b610175606a5481565b606e5461014f906001600160a01b031681565b610196610483565b61019661020e3660046109e8565b610497565b610175606d5481565b6033546001600160a01b031661014f565b61019661023b366004610a0c565b6104c1565b61019661024e366004610a0c565b610543565b610196610261366004610a0c565b610582565b6101966102743660046109e8565b6107bb565b6101756107e5565b61017561028f366004610a25565b606c60209081526000928352604080842090915290825290205481565b6101966102ba3660046109e8565b610816565b61017560695481565b600054610100900460ff16158080156102e85750600054600160ff909116105b806103025750303b158015610302575060005460ff166001145b61036a5760405162461bcd60e51b815260206004820152602e60248201527f496e697469616c697a61626c653a20636f6e747261637420697320616c72656160448201526d191e481a5b9a5d1a585b1a5e995960921b60648201526084015b60405180910390fd5b6000805460ff19166001179055801561038d576000805461ff0019166101001790555b606580546001600160a01b038086166001600160a01b03199283161790925560668054928516929091169190911790556103c561088f565b801561040b576000805461ff0019169055604051600181527f7f26b83ff96e1f2b6a682f133852f6798a09c465da95921460cefb38474024989060200160405180910390a15b505050565b6066546040516370a0823160e01b81523060048201526000916001600160a01b0316906370a08231906024015b602060405180830381865afa15801561045a573d6000803e3d6000fd5b505050506040513d601f19601f8201168201806040525081019061047e9190610a51565b905090565b61048b6108be565b6104956000610918565b565b61049f6108be565b606680546001600160a01b0319166001600160a01b0392909216919091179055565b6104c96108be565b60665460405163a9059cbb60e01b8152336004820152602481018390526001600160a01b039091169063a9059cbb906044015b6020604051808303816000875af115801561051b573d6000803e3d6000fd5b505050506040513d601f19601f8201168201806040525081019061053f9190610a6a565b5050565b61054b6108be565b60655460405163a9059cbb60e01b8152336004820152602481018390526001600160a01b039091169063a9059cbb906044016104fc565b600081116105d25760405162461bcd60e51b815260206004820181905260248201527f416d6f756e74206d7573742062652067726561746572207468616e207a65726f6044820152606401610361565b6065546040516370a0823160e01b815233600482015282916001600160a01b0316906370a0823190602401602060405180830381865afa15801561061a573d6000803e3d6000fd5b505050506040513d601f19601f8201168201806040525081019061063e9190610a51565b101561068c5760405162461bcd60e51b815260206004820152601d60248201527f496e73756666696369656e7420414c5420474f4c442062616c616e63650000006044820152606401610361565b6065546040516323b872dd60e01b8152336004820152306024820152604481018390526001600160a01b03909116906323b872dd906064016020604051808303816000875af11580156106e3573d6000803e3d6000fd5b505050506040513d601f19601f820116820180604052508101906107079190610a6a565b5060665460405163a9059cbb60e01b8152336004820152602481018390526001600160a01b039091169063a9059cbb906044016020604051808303816000875af1158015610759573d6000803e3d6000fd5b505050506040513d601f19601f8201168201806040525081019061077d9190610a6a565b506040805182815242602082015233917f46949ee51143d5b58e4df83122d6c382a04f7bffbe563f78cd7fa61ee519ec08910160405180910390a250565b6107c36108be565b606580546001600160a01b0319166001600160a01b0392909216919091179055565b6065546040516370a0823160e01b81523060048201526000916001600160a01b0316906370a082319060240161043d565b61081e6108be565b6001600160a01b0381166108835760405162461bcd60e51b815260206004820152602660248201527f4f776e61626c653a206e6577206f776e657220697320746865207a65726f206160448201526564647265737360d01b6064820152608401610361565b61088c81610918565b50565b600054610100900460ff166108b65760405162461bcd60e51b815260040161036190610a8c565b61049561096a565b6033546001600160a01b031633146104955760405162461bcd60e51b815260206004820181905260248201527f4f776e61626c653a2063616c6c6572206973206e6f7420746865206f776e65726044820152606401610361565b603380546001600160a01b038381166001600160a01b0319831681179093556040519116919082907f8be0079c531659141344cd1fd0a4f28419497f9722a3daafe3b4186f6b6457e090600090a35050565b600054610100900460ff166109915760405162461bcd60e51b815260040161036190610a8c565b61049533610918565b6001600160a01b038116811461088c57600080fd5b600080604083850312156109c257600080fd5b82356109cd8161099a565b915060208301356109dd8161099a565b809150509250929050565b6000602082840312156109fa57600080fd5b8135610a058161099a565b9392505050565b600060208284031215610a1e57600080fd5b5035919050565b60008060408385031215610a3857600080fd5b8235610a438161099a565b946020939093013593505050565b600060208284031215610a6357600080fd5b5051919050565b600060208284031215610a7c57600080fd5b81518015158114610a0557600080fd5b6020808252602b908201527f496e697469616c697a61626c653a20636f6e7472616374206973206e6f74206960408201526a6e697469616c697a696e6760a81b60608201526080019056fea2646970667358221220231e58138b5a16a1ae68cce67ed979cb79b4eadf97db1db5c5cdf384e8d9d43364736f6c63430008130033",
  "linkReferences": {},
  "deployedLinkReferences": {}
}