{
  "_format": "hh-sol-artifact-1",
  "contractName": "ALTGold",
  "sourceName": "contracts/ALTGold.sol",
  "abi": [
    {
      "inputs": [],
      "stateMutability": "nonpayable",
      "type": "constructor"
    },
    {
      "anonymous": false,
      "inputs": [
        {
          "indexed": false,
          "internalType": "address",
          "name": "previousAdmin",
          "type": "address"
        },
        {
          "indexed": false,
          "internalType": "address",
          "name": "newAdmin",
          "type": "address"
        }
      ],
      "name": "AdminChanged",
      "type": "event"
    },
    {
      "anonymous": false,
      "inputs": [
        {
          "indexed": true,
          "internalType": "address",
          "name": "owner",
          "type": "address"
        },
        {
          "indexed": true,
          "internalType": "address",
          "name": "spender",
          "type": "address"
        },
        {
          "indexed": false,
          "internalType": "uint256",
          "name": "value",
          "type": "uint256"
        }
      ],
      "name": "Approval",
      "type": "event"
    },
    {
      "anonymous": false,
      "inputs": [
        {
          "indexed": true,
          "internalType": "address",
          "name": "beacon",
          "type": "address"
        }
      ],
      "name": "BeaconUpgraded",
      "type": "event"
    },
    {
      "anonymous": false,
      "inputs": [
        {
          "indexed": true,
          "internalType": "address",
          "name": "from",
          "type": "address"
        },
        {
          "indexed": false,
          "internalType": "uint256",
          "name": "amount",
          "type": "uint256"
        }
      ],
      "name": "Burn",
      "type": "event"
    },
    {
      "anonymous": false,
      "inputs": [
        {
          "indexed": false,
          "internalType": "uint8",
          "name": "version",
          "type": "uint8"
        }
      ],
      "name": "Initialized",
      "type": "event"
    },
    {
      "anonymous": false,
      "inputs": [
        {
          "indexed": true,
          "internalType": "address",
          "name": "to",
          "type": "address"
        },
        {
          "indexed": false,
          "internalType": "uint256",
          "name": "amount",
          "type": "uint256"
        }
      ],
      "name": "Mint",
      "type": "event"
    },
    {
      "anonymous": false,
      "inputs": [
        {
          "indexed": true,
          "internalType": "address",
          "name": "previousOwner",
          "type": "address"
        },
        {
          "indexed": true,
          "internalType": "address",
          "name": "newOwner",
          "type": "address"
        }
      ],
      "name": "OwnershipTransferred",
      "type": "event"
    },
    {
      "anonymous": false,
      "inputs": [
        {
          "indexed": false,
          "internalType": "address",
          "name": "account",
          "type": "address"
        }
      ],
      "name": "Paused",
      "type": "event"
    },
    {
      "anonymous": false,
      "inputs": [
        {
          "indexed": true,
          "internalType": "address",
          "name": "from",
          "type": "address"
        },
        {
          "indexed": true,
          "internalType": "address",
          "name": "to",
          "type": "address"
        },
        {
          "indexed": false,
          "internalType": "uint256",
          "name": "value",
          "type": "uint256"
        }
      ],
      "name": "Transfer",
      "type": "event"
    },
    {
      "anonymous": false,
      "inputs": [
        {
          "indexed": false,
          "internalType": "address",
          "name": "account",
          "type": "address"
        }
      ],
      "name": "Unpaused",
      "type": "event"
    },
    {
      "anonymous": false,
      "inputs": [
        {
          "indexed": true,
          "internalType": "address",
          "name": "implementation",
          "type": "address"
        }
      ],
      "name": "Upgraded",
      "type": "event"
    },
    {
      "anonymous": false,
      "inputs": [
        {
          "indexed": true,
          "internalType": "address",
          "name": "account",
          "type": "address"
        },
        {
          "indexed": false,
          "internalType": "bool",
          "name": "added",
          "type": "bool"
        }
      ],
      "name": "WhitelistUpdated",
      "type": "event"
    },
    {
      "inputs": [
        {
          "internalType": "address",
          "name": "account",
          "type": "address"
        }
      ],
      "name": "addToWhitelist",
      "outputs": [],
      "stateMutability": "nonpayable",
      "type": "function"
    },
    {
      "inputs": [
        {
          "internalType": "address[]",
          "name": "accounts",
          "type": "address[]"
        }
      ],
      "name": "addressesToWhitelist",
      "outputs": [],
      "stateMutability": "nonpayable",
      "type": "function"
    },
    {
      "inputs": [
        {
          "internalType": "address",
          "name": "owner",
          "type": "address"
        },
        {
          "internalType": "address",
          "name": "spender",
          "type": "address"
        }
      ],
      "name": "allowance",
      "outputs": [
        {
          "internalType": "uint256",
          "name": "",
          "type": "uint256"
        }
      ],
      "stateMutability": "view",
      "type": "function"
    },
    {
      "inputs": [
        {
          "internalType": "address",
          "name": "spender",
          "type": "address"
        },
        {
          "internalType": "uint256",
          "name": "amount",
          "type": "uint256"
        }
      ],
      "name": "approve",
      "outputs": [
        {
          "internalType": "bool",
          "name": "",
          "type": "bool"
        }
      ],
      "stateMutability": "nonpayable",
      "type": "function"
    },
    {
      "inputs": [
        {
          "internalType": "address",
          "name": "account",
          "type": "address"
        }
      ],
      "name": "balanceOf",
      "outputs": [
        {
          "internalType": "uint256",
          "name": "",
          "type": "uint256"
        }
      ],
      "stateMutability": "view",
      "type": "function"
    },
    {
      "inputs": [
        {
          "internalType": "uint256",
          "name": "amount",
          "type": "uint256"
        }
      ],
      "name": "burn",
      "outputs": [],
      "stateMutability": "nonpayable",
      "type": "function"
    },
    {
      "inputs": [
        {
          "internalType": "address",
          "name": "account",
          "type": "address"
        },
        {
          "internalType": "uint256",
          "name": "amount",
          "type": "uint256"
        }
      ],
      "name": "burnFrom",
      "outputs": [],
      "stateMutability": "nonpayable",
      "type": "function"
    },
    {
      "inputs": [],
      "name": "decimals",
      "outputs": [
        {
          "internalType": "uint8",
          "name": "",
          "type": "uint8"
        }
      ],
      "stateMutability": "view",
      "type": "function"
    },
    {
      "inputs": [
        {
          "internalType": "address",
          "name": "spender",
          "type": "address"
        },
        {
          "internalType": "uint256",
          "name": "subtractedValue",
          "type": "uint256"
        }
      ],
      "name": "decreaseAllowance",
      "outputs": [
        {
          "internalType": "bool",
          "name": "",
          "type": "bool"
        }
      ],
      "stateMutability": "nonpayable",
      "type": "function"
    },
    {
      "inputs": [
        {
          "internalType": "address",
          "name": "spender",
          "type": "address"
        },
        {
          "internalType": "uint256",
          "name": "addedValue",
          "type": "uint256"
        }
      ],
      "name": "increaseAllowance",
      "outputs": [
        {
          "internalType": "bool",
          "name": "",
          "type": "bool"
        }
      ],
      "stateMutability": "nonpayable",
      "type": "function"
    },
    {
      "inputs": [],
      "name": "initialize",
      "outputs": [],
      "stateMutability": "nonpayable",
      "type": "function"
    },
    {
      "inputs": [
        {
          "internalType": "address",
          "name": "account",
          "type": "address"
        }
      ],
      "name": "isWhitelisted",
      "outputs": [
        {
          "internalType": "bool",
          "name": "",
          "type": "bool"
        }
      ],
      "stateMutability": "view",
      "type": "function"
    },
    {
      "inputs": [
        {
          "internalType": "address",
          "name": "to",
          "type": "address"
        },
        {
          "internalType": "uint256",
          "name": "amount",
          "type": "uint256"
        }
      ],
      "name": "mint",
      "outputs": [],
      "stateMutability": "nonpayable",
      "type": "function"
    },
    {
      "inputs": [],
      "name": "name",
      "outputs": [
        {
          "internalType": "string",
          "name": "",
          "type": "string"
        }
      ],
      "stateMutability": "view",
      "type": "function"
    },
    {
      "inputs": [],
      "name": "owner",
      "outputs": [
        {
          "internalType": "address",
          "name": "",
          "type": "address"
        }
      ],
      "stateMutability": "view",
      "type": "function"
    },
    {
      "inputs": [],
      "name": "pause",
      "outputs": [],
      "stateMutability": "nonpayable",
      "type": "function"
    },
    {
      "inputs": [],
      "name": "paused",
      "outputs": [
        {
          "internalType": "bool",
          "name": "",
          "type": "bool"
        }
      ],
      "stateMutability": "view",
      "type": "function"
    },
    {
      "inputs": [],
      "name": "proxiableUUID",
      "outputs": [
        {
          "internalType": "bytes32",
          "name": "",
          "type": "bytes32"
        }
      ],
      "stateMutability": "view",
      "type": "function"
    },
    {
      "inputs": [
        {
          "internalType": "address",
          "name": "account",
          "type": "address"
        }
      ],
      "name": "removeFromWhitelist",
      "outputs": [],
      "stateMutability": "nonpayable",
      "type": "function"
    },
    {
      "inputs": [],
      "name": "renounceOwnership",
      "outputs": [],
      "stateMutability": "nonpayable",
      "type": "function"
    },
    {
      "inputs": [],
      "name": "symbol",
      "outputs": [
        {
          "internalType": "string",
          "name": "",
          "type": "string"
        }
      ],
      "stateMutability": "view",
      "type": "function"
    },
    {
      "inputs": [],
      "name": "totalSupply",
      "outputs": [
        {
          "internalType": "uint256",
          "name": "",
          "type": "uint256"
        }
      ],
      "stateMutability": "view",
      "type": "function"
    },
    {
      "inputs": [
        {
          "internalType": "address",
          "name": "to",
          "type": "address"
        },
        {
          "internalType": "uint256",
          "name": "amount",
          "type": "uint256"
        }
      ],
      "name": "transfer",
      "outputs": [
        {
          "internalType": "bool",
          "name": "",
          "type": "bool"
        }
      ],
      "stateMutability": "nonpayable",
      "type": "function"
    },
    {
      "inputs": [
        {
          "internalType": "address",
          "name": "from",
          "type": "address"
        },
        {
          "internalType": "address",
          "name": "to",
          "type": "address"
        },
        {
          "internalType": "uint256",
          "name": "amount",
          "type": "uint256"
        }
      ],
      "name": "transferFrom",
      "outputs": [
        {
          "internalType": "bool",
          "name": "",
          "type": "bool"
        }
      ],
      "stateMutability": "nonpayable",
      "type": "function"
    },
    {
      "inputs": [
        {
          "internalType": "address",
          "name": "newOwner",
          "type": "address"
        }
      ],
      "name": "transferOwnership",
      "outputs": [],
      "stateMutability": "nonpayable",
      "type": "function"
    },
    {
      "inputs": [],
      "name": "unpause",
      "outputs": [],
      "stateMutability": "nonpayable",
      "type": "function"
    },
    {
      "inputs": [
        {
          "internalType": "address",
          "name": "newImplementation",
          "type": "address"
        }
      ],
      "name": "upgradeTo",
      "outputs": [],
      "stateMutability": "nonpayable",
      "type": "function"
    },
    {
      "inputs": [
        {
          "internalType": "address",
          "name": "newImplementation",
          "type": "address"
        },
        {
          "internalType": "bytes",
          "name": "data",
          "type": "bytes"
        }
      ],
      "name": "upgradeToAndCall",
      "outputs": [],
      "stateMutability": "payable",
      "type": "function"
    },
    {
      "inputs": [],
      "name": "version",
      "outputs": [
        {
          "internalType": "string",
          "name": "",
          "type": "string"
        }
      ],
      "stateMutability": "pure",
      "type": "function"
    }
  ],
  "bytecode": "0x60a06040523060805234801561001457600080fd5b5061001d610022565b6100e1565b600054610100900460ff161561008e5760405162461bcd60e51b815260206004820152602760248201527f496e697469616c697a61626c653a20636f6e747261637420697320696e697469604482015266616c697a696e6760c81b606482015260840160405180910390fd5b60005460ff908116146100df576000805460ff191660ff9081179091556040519081527f7f26b83ff96e1f2b6a682f133852f6798a09c465da95921460cefb38474024989060200160405180910390a15b565b6080516121e66200011960003960008181610648015281816106910152818161096c015281816109ac0152610a3f01526121e66000f3fe6080604052600436106101c25760003560e01c806354fd4d50116100f75780638ab1d68111610095578063a9059cbb11610064578063a9059cbb146104ee578063dd62ed3e1461050e578063e43252d71461052e578063f2fde38b1461054e57600080fd5b80638ab1d681146104715780638da5cb5b1461049157806395d89b41146104b9578063a457c2d7146104ce57600080fd5b8063715018a6116100d1578063715018a61461041257806379cc6790146104275780638129fc1c146104475780638456cb591461045c57600080fd5b806354fd4d50146103965780635c975abb146103c457806370a08231146103dc57600080fd5b80633af32abf1161016457806340c10f191161013e57806340c10f191461032e57806342966c681461034e5780634f1ef2861461036e57806352d1902d1461038157600080fd5b80633af32abf146102bf5780633f017a88146102f95780633f4ba83a1461031957600080fd5b806323b872dd116101a057806323b872dd14610241578063313ce567146102615780633659cfe61461027d578063395093511461029f57600080fd5b806306fdde03146101c7578063095ea7b3146101f257806318160ddd14610222575b600080fd5b3480156101d357600080fd5b506101dc61056e565b6040516101e99190611c48565b60405180910390f35b3480156101fe57600080fd5b5061021261020d366004611c97565b610600565b60405190151581526020016101e9565b34801561022e57600080fd5b506035545b6040519081526020016101e9565b34801561024d57600080fd5b5061021261025c366004611cc1565b61061a565b34801561026d57600080fd5b50604051601281526020016101e9565b34801561028957600080fd5b5061029d610298366004611cfd565b61063e565b005b3480156102ab57600080fd5b506102126102ba366004611c97565b610726565b3480156102cb57600080fd5b506102126102da366004611cfd565b6001600160a01b0316600090815261015f602052604090205460ff1690565b34801561030557600080fd5b5061029d610314366004611d18565b610748565b34801561032557600080fd5b5061029d61083c565b34801561033a57600080fd5b5061029d610349366004611c97565b61084e565b34801561035a57600080fd5b5061029d610369366004611d8d565b610918565b61029d61037c366004611dbc565b610962565b34801561038d57600080fd5b50610233610a32565b3480156103a257600080fd5b506040805180820190915260058152640312e302e360dc1b60208201526101dc565b3480156103d057600080fd5b5060975460ff16610212565b3480156103e857600080fd5b506102336103f7366004611cfd565b6001600160a01b031660009081526033602052604090205490565b34801561041e57600080fd5b5061029d610ae5565b34801561043357600080fd5b5061029d610442366004611c97565b610af7565b34801561045357600080fd5b5061029d610b44565b34801561046857600080fd5b5061029d610cb5565b34801561047d57600080fd5b5061029d61048c366004611cfd565b610cc5565b34801561049d57600080fd5b5060c9546040516001600160a01b0390911681526020016101e9565b3480156104c557600080fd5b506101dc610d25565b3480156104da57600080fd5b506102126104e9366004611c97565b610d34565b3480156104fa57600080fd5b50610212610509366004611c97565b610daf565b34801561051a57600080fd5b50610233610529366004611e7e565b610dbd565b34801561053a57600080fd5b5061029d610549366004611cfd565b610de8565b34801561055a57600080fd5b5061029d610569366004611cfd565b610e50565b60606036805461057d90611eb1565b80601f01602080910402602001604051908101604052809291908181526020018280546105a990611eb1565b80156105f65780601f106105cb576101008083540402835291602001916105f6565b820191906000526020600020905b8154815290600101906020018083116105d957829003601f168201915b5050505050905090565b60003361060e818585610ec6565b60019150505b92915050565b600033610628858285610fea565b610633858585611064565b506001949350505050565b6001600160a01b037f000000000000000000000000000000000000000000000000000000000000000016300361068f5760405162461bcd60e51b815260040161068690611eeb565b60405180910390fd5b7f00000000000000000000000000000000000000000000000000000000000000006001600160a01b03166106d860008051602061216a833981519152546001600160a01b031690565b6001600160a01b0316146106fe5760405162461bcd60e51b815260040161068690611f37565b6107078161121a565b6040805160008082526020820190925261072391839190611222565b50565b60003361060e8185856107398383610dbd565b6107439190611f99565b610ec6565b61075061138d565b6107586113d3565b60005b8181101561083757600161015f600085858581811061077c5761077c611fac565b90506020020160208101906107919190611cfd565b6001600160a01b031681526020810191909152604001600020805460ff19169115159190911790558282828181106107cb576107cb611fac565b90506020020160208101906107e09190611cfd565b6001600160a01b03167ff93f9a76c1bf3444d22400a00cb9fe990e6abe9dbb333fda48859cfee864543d600160405161081d911515815260200190565b60405180910390a28061082f81611fc2565b91505061075b565b505050565b6108446113d3565b61084c61142d565b565b61085661138d565b61085e6113d3565b6001600160a01b038216600090815261015f602052604090205460ff166108c75760405162461bcd60e51b815260206004820152601760248201527f41646472657373206e6f742077686974656c69737465640000000000000000006044820152606401610686565b6108d1828261147f565b816001600160a01b03167f0f6798a560793a54c3bcfe86a93cde1e73087d944c0ea20544137d41213968858260405161090c91815260200190565b60405180910390a25050565b61092061138d565b6109298161154c565b60405181815233907fcc16f5dbb4873280815c1ee09dbd06736cffcc184412cf7a71a0fdb75d397ca5906020015b60405180910390a250565b6001600160a01b037f00000000000000000000000000000000000000000000000000000000000000001630036109aa5760405162461bcd60e51b815260040161068690611eeb565b7f00000000000000000000000000000000000000000000000000000000000000006001600160a01b03166109f360008051602061216a833981519152546001600160a01b031690565b6001600160a01b031614610a195760405162461bcd60e51b815260040161068690611f37565b610a228261121a565b610a2e82826001611222565b5050565b6000306001600160a01b037f00000000000000000000000000000000000000000000000000000000000000001614610ad25760405162461bcd60e51b815260206004820152603860248201527f555550535570677261646561626c653a206d757374206e6f742062652063616c60448201527f6c6564207468726f7567682064656c656761746563616c6c00000000000000006064820152608401610686565b5060008051602061216a83398151915290565b610aed6113d3565b61084c6000611556565b610aff61138d565b610b0982826115a8565b816001600160a01b03167fcc16f5dbb4873280815c1ee09dbd06736cffcc184412cf7a71a0fdb75d397ca58260405161090c91815260200190565b600054610100900460ff1615808015610b645750600054600160ff909116105b80610b7e5750303b158015610b7e575060005460ff166001145b610be15760405162461bcd60e51b815260206004820152602e60248201527f496e697469616c697a61626c653a20636f6e747261637420697320616c72656160448201526d191e481a5b9a5d1a585b1a5e995960921b6064820152608401610686565b6000805460ff191660011790558015610c04576000805461ff0019166101001790555b610c4d604051806040016040528060088152602001671053150811d3d31160c21b8152506040518060400160405280600781526020016610531511d3d31160ca1b8152506115bd565b610c556115ee565b610c5d611615565b610c65611644565b610c6d6115ee565b8015610723576000805461ff0019169055604051600181527f7f26b83ff96e1f2b6a682f133852f6798a09c465da95921460cefb38474024989060200160405180910390a150565b610cbd6113d3565b61084c611673565b610ccd61138d565b610cd56113d3565b6001600160a01b038116600081815261015f60209081526040808320805460ff19169055519182527ff93f9a76c1bf3444d22400a00cb9fe990e6abe9dbb333fda48859cfee864543d9101610957565b60606037805461057d90611eb1565b60003381610d428286610dbd565b905083811015610da25760405162461bcd60e51b815260206004820152602560248201527f45524332303a2064656372656173656420616c6c6f77616e63652062656c6f77604482015264207a65726f60d81b6064820152608401610686565b6106338286868403610ec6565b60003361060e818585611064565b6001600160a01b03918216600090815260346020908152604080832093909416825291909152205490565b610df061138d565b610df86113d3565b6001600160a01b038116600081815261015f6020908152604091829020805460ff1916600190811790915591519182527ff93f9a76c1bf3444d22400a00cb9fe990e6abe9dbb333fda48859cfee864543d9101610957565b610e586113d3565b6001600160a01b038116610ebd5760405162461bcd60e51b815260206004820152602660248201527f4f776e61626c653a206e6577206f776e657220697320746865207a65726f206160448201526564647265737360d01b6064820152608401610686565b61072381611556565b6001600160a01b038316610f285760405162461bcd60e51b8152602060048201526024808201527f45524332303a20617070726f76652066726f6d20746865207a65726f206164646044820152637265737360e01b6064820152608401610686565b6001600160a01b038216610f895760405162461bcd60e51b815260206004820152602260248201527f45524332303a20617070726f766520746f20746865207a65726f206164647265604482015261737360f01b6064820152608401610686565b6001600160a01b0383811660008181526034602090815260408083209487168084529482529182902085905590518481527f8c5be1e5ebec7d5bd14f71427d1e84f3dd0314c0f7b2291e5b200ac8c7c3b925910160405180910390a3505050565b6000610ff68484610dbd565b9050600019811461105e57818110156110515760405162461bcd60e51b815260206004820152601d60248201527f45524332303a20696e73756666696369656e7420616c6c6f77616e63650000006044820152606401610686565b61105e8484848403610ec6565b50505050565b6001600160a01b0383166110c85760405162461bcd60e51b815260206004820152602560248201527f45524332303a207472616e736665722066726f6d20746865207a65726f206164604482015264647265737360d81b6064820152608401610686565b6001600160a01b03821661112a5760405162461bcd60e51b815260206004820152602360248201527f45524332303a207472616e7366657220746f20746865207a65726f206164647260448201526265737360e81b6064820152608401610686565b6111358383836116b0565b6001600160a01b038316600090815260336020526040902054818110156111ad5760405162461bcd60e51b815260206004820152602660248201527f45524332303a207472616e7366657220616d6f756e7420657863656564732062604482015265616c616e636560d01b6064820152608401610686565b6001600160a01b0380851660008181526033602052604080822086860390559286168082529083902080548601905591517fddf252ad1be2c89b69c2b068fc378daa952ba7f163c4a11628f55a4df523b3ef9061120d9086815260200190565b60405180910390a361105e565b6107236113d3565b7f4910fdfa16fed3260ed0e7147f7cc6da11a60208b5b9406d12a635614ffd91435460ff161561125557610837836117a8565b826001600160a01b03166352d1902d6040518163ffffffff1660e01b8152600401602060405180830381865afa9250505080156112af575060408051601f3d908101601f191682019092526112ac91810190611fdb565b60015b6113125760405162461bcd60e51b815260206004820152602e60248201527f45524331393637557067726164653a206e657720696d706c656d656e7461746960448201526d6f6e206973206e6f74205555505360901b6064820152608401610686565b60008051602061216a83398151915281146113815760405162461bcd60e51b815260206004820152602960248201527f45524331393637557067726164653a20756e737570706f727465642070726f786044820152681a58589b195555525160ba1b6064820152608401610686565b50610837838383611844565b60975460ff161561084c5760405162461bcd60e51b815260206004820152601060248201526f14185d5cd8589b194e881c185d5cd95960821b6044820152606401610686565b60c9546001600160a01b0316331461084c5760405162461bcd60e51b815260206004820181905260248201527f4f776e61626c653a2063616c6c6572206973206e6f7420746865206f776e65726044820152606401610686565b611435611869565b6097805460ff191690557f5db9ee0a495bf2e6ff9c91a7834c1ba4fdd244a5e8aa4e537bd38aeae4b073aa335b6040516001600160a01b03909116815260200160405180910390a1565b6001600160a01b0382166114d55760405162461bcd60e51b815260206004820152601f60248201527f45524332303a206d696e7420746f20746865207a65726f2061646472657373006044820152606401610686565b6114e1600083836116b0565b80603560008282546114f39190611f99565b90915550506001600160a01b0382166000818152603360209081526040808320805486019055518481527fddf252ad1be2c89b69c2b068fc378daa952ba7f163c4a11628f55a4df523b3ef910160405180910390a35050565b61072333826118b2565b60c980546001600160a01b038381166001600160a01b0319831681179093556040519116919082907f8be0079c531659141344cd1fd0a4f28419497f9722a3daafe3b4186f6b6457e090600090a35050565b6115b3823383610fea565b610a2e82826118b2565b600054610100900460ff166115e45760405162461bcd60e51b815260040161068690611ff4565b610a2e82826119f2565b600054610100900460ff1661084c5760405162461bcd60e51b815260040161068690611ff4565b600054610100900460ff1661163c5760405162461bcd60e51b815260040161068690611ff4565b61084c611a32565b600054610100900460ff1661166b5760405162461bcd60e51b815260040161068690611ff4565b61084c611a65565b61167b61138d565b6097805460ff191660011790557f62e78cea01bee320cd4e420270b5ea74000d11b0c9f74754ebdbfc544b05a2586114623390565b6116b861138d565b6001600160a01b038316158015906116d857506001600160a01b03821615155b15610837576001600160a01b038316600090815261015f602052604090205460ff1661173f5760405162461bcd60e51b815260206004820152601660248201527514d95b99195c881b9bdd081dda1a5d195b1a5cdd195960521b6044820152606401610686565b6001600160a01b038216600090815261015f602052604090205460ff166108375760405162461bcd60e51b815260206004820152601960248201527f526563697069656e74206e6f742077686974656c6973746564000000000000006044820152606401610686565b6001600160a01b0381163b6118155760405162461bcd60e51b815260206004820152602d60248201527f455243313936373a206e657720696d706c656d656e746174696f6e206973206e60448201526c1bdd08184818dbdb9d1c9858dd609a1b6064820152608401610686565b60008051602061216a83398151915280546001600160a01b0319166001600160a01b0392909216919091179055565b61184d83611a95565b60008251118061185a5750805b156108375761105e8383611ad5565b60975460ff1661084c5760405162461bcd60e51b815260206004820152601460248201527314185d5cd8589b194e881b9bdd081c185d5cd95960621b6044820152606401610686565b6001600160a01b0382166119125760405162461bcd60e51b815260206004820152602160248201527f45524332303a206275726e2066726f6d20746865207a65726f206164647265736044820152607360f81b6064820152608401610686565b61191e826000836116b0565b6001600160a01b038216600090815260336020526040902054818110156119925760405162461bcd60e51b815260206004820152602260248201527f45524332303a206275726e20616d6f756e7420657863656564732062616c616e604482015261636560f01b6064820152608401610686565b6001600160a01b03831660008181526033602090815260408083208686039055603580548790039055518581529192917fddf252ad1be2c89b69c2b068fc378daa952ba7f163c4a11628f55a4df523b3ef910160405180910390a3505050565b600054610100900460ff16611a195760405162461bcd60e51b815260040161068690611ff4565b6036611a25838261208d565b506037610837828261208d565b600054610100900460ff16611a595760405162461bcd60e51b815260040161068690611ff4565b6097805460ff19169055565b600054610100900460ff16611a8c5760405162461bcd60e51b815260040161068690611ff4565b61084c33611556565b611a9e816117a8565b6040516001600160a01b038216907fbc7cd75a20ee27fd9adebab32041f755214dbc6bffa90cc0225b39da2e5c2d3b90600090a250565b6060611afa838360405180606001604052806027815260200161218a60279139611b01565b9392505050565b6060600080856001600160a01b031685604051611b1e919061214d565b600060405180830381855af49150503d8060008114611b59576040519150601f19603f3d011682016040523d82523d6000602084013e611b5e565b606091505b5091509150611b6f86838387611b79565b9695505050505050565b60608315611be8578251600003611be1576001600160a01b0385163b611be15760405162461bcd60e51b815260206004820152601d60248201527f416464726573733a2063616c6c20746f206e6f6e2d636f6e74726163740000006044820152606401610686565b5081611bf2565b611bf28383611bfa565b949350505050565b815115611c0a5781518083602001fd5b8060405162461bcd60e51b81526004016106869190611c48565b60005b83811015611c3f578181015183820152602001611c27565b50506000910152565b6020815260008251806020840152611c67816040850160208701611c24565b601f01601f19169190910160400192915050565b80356001600160a01b0381168114611c9257600080fd5b919050565b60008060408385031215611caa57600080fd5b611cb383611c7b565b946020939093013593505050565b600080600060608486031215611cd657600080fd5b611cdf84611c7b565b9250611ced60208501611c7b565b9150604084013590509250925092565b600060208284031215611d0f57600080fd5b611afa82611c7b565b60008060208385031215611d2b57600080fd5b823567ffffffffffffffff80821115611d4357600080fd5b818501915085601f830112611d5757600080fd5b813581811115611d6657600080fd5b8660208260051b8501011115611d7b57600080fd5b60209290920196919550909350505050565b600060208284031215611d9f57600080fd5b5035919050565b634e487b7160e01b600052604160045260246000fd5b60008060408385031215611dcf57600080fd5b611dd883611c7b565b9150602083013567ffffffffffffffff80821115611df557600080fd5b818501915085601f830112611e0957600080fd5b813581811115611e1b57611e1b611da6565b604051601f8201601f19908116603f01168101908382118183101715611e4357611e43611da6565b81604052828152886020848701011115611e5c57600080fd5b8260208601602083013760006020848301015280955050505050509250929050565b60008060408385031215611e9157600080fd5b611e9a83611c7b565b9150611ea860208401611c7b565b90509250929050565b600181811c90821680611ec557607f821691505b602082108103611ee557634e487b7160e01b600052602260045260246000fd5b50919050565b6020808252602c908201527f46756e6374696f6e206d7573742062652063616c6c6564207468726f7567682060408201526b19195b1959d85d1958d85b1b60a21b606082015260800190565b6020808252602c908201527f46756e6374696f6e206d7573742062652063616c6c6564207468726f7567682060408201526b6163746976652070726f787960a01b606082015260800190565b634e487b7160e01b600052601160045260246000fd5b8082018082111561061457610614611f83565b634e487b7160e01b600052603260045260246000fd5b600060018201611fd457611fd4611f83565b5060010190565b600060208284031215611fed57600080fd5b5051919050565b6020808252602b908201527f496e697469616c697a61626c653a20636f6e7472616374206973206e6f74206960408201526a6e697469616c697a696e6760a81b606082015260800190565b601f82111561083757600081815260208120601f850160051c810160208610156120665750805b601f850160051c820191505b8181101561208557828155600101612072565b505050505050565b815167ffffffffffffffff8111156120a7576120a7611da6565b6120bb816120b58454611eb1565b8461203f565b602080601f8311600181146120f057600084156120d85750858301515b600019600386901b1c1916600185901b178555612085565b600085815260208120601f198616915b8281101561211f57888601518255948401946001909101908401612100565b508582101561213d5787850151600019600388901b60f8161c191681555b5050505050600190811b01905550565b6000825161215f818460208701611c24565b919091019291505056fe360894a13ba1a3210667c828492db98dca3e2076cc3735a920a3ca505d382bbc416464726573733a206c6f772d6c6576656c2064656c65676174652063616c6c206661696c6564a2646970667358221220604d463692bab4f73369348edcf8c04f5f6a7bf14fc400f6fc6276c0fd8018c564736f6c63430008130033",
  "linkReferences": {},
  "deployedLinkReferences": {}
}