{
  "_format": "hh-sol-artifact-1",
  "contractName": "ALTGold",
  "sourceName": "contracts/ALTGold.sol",
  "abi": [
    {
      "inputs": [],
      "stateMutability": "nonpayable",
      "type": "constructor"
    },
    {
      "inputs": [],
      "name": "AddressNotWhitelisted",
      "type": "error"
    },
    {
      "inputs": [],
      "name": "TransferToNonWhitelisted",
      "type": "error"
    },
    {
      "anonymous": false,
      "inputs": [
        {
          "indexed": false,
          "internalType": "address",
          "name": "previousAdmin",
          "type": "address"
        },
        {
          "indexed": false,
          "internalType": "address",
          "name": "newAdmin",
          "type": "address"
        }
      ],
      "name": "AdminChanged",
      "type": "event"
    },
    {
      "anonymous": false,
      "inputs": [
        {
          "indexed": true,
          "internalType": "address",
          "name": "owner",
          "type": "address"
        },
        {
          "indexed": true,
          "internalType": "address",
          "name": "spender",
          "type": "address"
        },
        {
          "indexed": false,
          "internalType": "uint256",
          "name": "value",
          "type": "uint256"
        }
      ],
      "name": "Approval",
      "type": "event"
    },
    {
      "anonymous": false,
      "inputs": [
        {
          "indexed": true,
          "internalType": "address",
          "name": "beacon",
          "type": "address"
        }
      ],
      "name": "BeaconUpgraded",
      "type": "event"
    },
    {
      "anonymous": false,
      "inputs": [
        {
          "indexed": true,
          "internalType": "address",
          "name": "from",
          "type": "address"
        },
        {
          "indexed": false,
          "internalType": "uint256",
          "name": "amount",
          "type": "uint256"
        }
      ],
      "name": "Burn",
      "type": "event"
    },
    {
      "anonymous": false,
      "inputs": [
        {
          "indexed": false,
          "internalType": "uint8",
          "name": "version",
          "type": "uint8"
        }
      ],
      "name": "Initialized",
      "type": "event"
    },
    {
      "anonymous": false,
      "inputs": [
        {
          "indexed": true,
          "internalType": "address",
          "name": "to",
          "type": "address"
        },
        {
          "indexed": false,
          "internalType": "uint256",
          "name": "amount",
          "type": "uint256"
        }
      ],
      "name": "Mint",
      "type": "event"
    },
    {
      "anonymous": false,
      "inputs": [
        {
          "indexed": true,
          "internalType": "address",
          "name": "previousOwner",
          "type": "address"
        },
        {
          "indexed": true,
          "internalType": "address",
          "name": "newOwner",
          "type": "address"
        }
      ],
      "name": "OwnershipTransferred",
      "type": "event"
    },
    {
      "anonymous": false,
      "inputs": [
        {
          "indexed": false,
          "internalType": "address",
          "name": "account",
          "type": "address"
        }
      ],
      "name": "Paused",
      "type": "event"
    },
    {
      "anonymous": false,
      "inputs": [
        {
          "indexed": true,
          "internalType": "address",
          "name": "from",
          "type": "address"
        },
        {
          "indexed": true,
          "internalType": "address",
          "name": "to",
          "type": "address"
        },
        {
          "indexed": false,
          "internalType": "uint256",
          "name": "value",
          "type": "uint256"
        }
      ],
      "name": "Transfer",
      "type": "event"
    },
    {
      "anonymous": false,
      "inputs": [
        {
          "indexed": false,
          "internalType": "address",
          "name": "account",
          "type": "address"
        }
      ],
      "name": "Unpaused",
      "type": "event"
    },
    {
      "anonymous": false,
      "inputs": [
        {
          "indexed": true,
          "internalType": "address",
          "name": "implementation",
          "type": "address"
        }
      ],
      "name": "Upgraded",
      "type": "event"
    },
    {
      "anonymous": false,
      "inputs": [
        {
          "indexed": true,
          "internalType": "address",
          "name": "account",
          "type": "address"
        },
        {
          "indexed": false,
          "internalType": "bool",
          "name": "added",
          "type": "bool"
        }
      ],
      "name": "WhitelistUpdated",
      "type": "event"
    },
    {
      "inputs": [],
      "name": "MAX_SUPPLY",
      "outputs": [
        {
          "internalType": "uint256",
          "name": "",
          "type": "uint256"
        }
      ],
      "stateMutability": "view",
      "type": "function"
    },
    {
      "inputs": [
        {
          "internalType": "address",
          "name": "account",
          "type": "address"
        }
      ],
      "name": "addToWhitelist",
      "outputs": [],
      "stateMutability": "nonpayable",
      "type": "function"
    },
    {
      "inputs": [
        {
          "internalType": "address[]",
          "name": "accounts",
          "type": "address[]"
        }
      ],
      "name": "addressesToWhitelist",
      "outputs": [],
      "stateMutability": "nonpayable",
      "type": "function"
    },
    {
      "inputs": [
        {
          "internalType": "address",
          "name": "owner",
          "type": "address"
        },
        {
          "internalType": "address",
          "name": "spender",
          "type": "address"
        }
      ],
      "name": "allowance",
      "outputs": [
        {
          "internalType": "uint256",
          "name": "",
          "type": "uint256"
        }
      ],
      "stateMutability": "view",
      "type": "function"
    },
    {
      "inputs": [
        {
          "internalType": "address",
          "name": "spender",
          "type": "address"
        },
        {
          "internalType": "uint256",
          "name": "amount",
          "type": "uint256"
        }
      ],
      "name": "approve",
      "outputs": [
        {
          "internalType": "bool",
          "name": "",
          "type": "bool"
        }
      ],
      "stateMutability": "nonpayable",
      "type": "function"
    },
    {
      "inputs": [
        {
          "internalType": "address",
          "name": "account",
          "type": "address"
        }
      ],
      "name": "balanceOf",
      "outputs": [
        {
          "internalType": "uint256",
          "name": "",
          "type": "uint256"
        }
      ],
      "stateMutability": "view",
      "type": "function"
    },
    {
      "inputs": [
        {
          "internalType": "uint256",
          "name": "amount",
          "type": "uint256"
        }
      ],
      "name": "burn",
      "outputs": [],
      "stateMutability": "nonpayable",
      "type": "function"
    },
    {
      "inputs": [
        {
          "internalType": "address",
          "name": "account",
          "type": "address"
        },
        {
          "internalType": "uint256",
          "name": "amount",
          "type": "uint256"
        }
      ],
      "name": "burnFrom",
      "outputs": [],
      "stateMutability": "nonpayable",
      "type": "function"
    },
    {
      "inputs": [],
      "name": "decimals",
      "outputs": [
        {
          "internalType": "uint8",
          "name": "",
          "type": "uint8"
        }
      ],
      "stateMutability": "view",
      "type": "function"
    },
    {
      "inputs": [
        {
          "internalType": "address",
          "name": "spender",
          "type": "address"
        },
        {
          "internalType": "uint256",
          "name": "subtractedValue",
          "type": "uint256"
        }
      ],
      "name": "decreaseAllowance",
      "outputs": [
        {
          "internalType": "bool",
          "name": "",
          "type": "bool"
        }
      ],
      "stateMutability": "nonpayable",
      "type": "function"
    },
    {
      "inputs": [
        {
          "internalType": "address",
          "name": "spender",
          "type": "address"
        },
        {
          "internalType": "uint256",
          "name": "addedValue",
          "type": "uint256"
        }
      ],
      "name": "increaseAllowance",
      "outputs": [
        {
          "internalType": "bool",
          "name": "",
          "type": "bool"
        }
      ],
      "stateMutability": "nonpayable",
      "type": "function"
    },
    {
      "inputs": [],
      "name": "initialize",
      "outputs": [],
      "stateMutability": "nonpayable",
      "type": "function"
    },
    {
      "inputs": [
        {
          "internalType": "address",
          "name": "account",
          "type": "address"
        }
      ],
      "name": "isWhitelisted",
      "outputs": [
        {
          "internalType": "bool",
          "name": "",
          "type": "bool"
        }
      ],
      "stateMutability": "view",
      "type": "function"
    },
    {
      "inputs": [
        {
          "internalType": "address",
          "name": "to",
          "type": "address"
        },
        {
          "internalType": "uint256",
          "name": "amount",
          "type": "uint256"
        }
      ],
      "name": "mint",
      "outputs": [],
      "stateMutability": "nonpayable",
      "type": "function"
    },
    {
      "inputs": [],
      "name": "name",
      "outputs": [
        {
          "internalType": "string",
          "name": "",
          "type": "string"
        }
      ],
      "stateMutability": "view",
      "type": "function"
    },
    {
      "inputs": [],
      "name": "owner",
      "outputs": [
        {
          "internalType": "address",
          "name": "",
          "type": "address"
        }
      ],
      "stateMutability": "view",
      "type": "function"
    },
    {
      "inputs": [],
      "name": "pause",
      "outputs": [],
      "stateMutability": "nonpayable",
      "type": "function"
    },
    {
      "inputs": [],
      "name": "paused",
      "outputs": [
        {
          "internalType": "bool",
          "name": "",
          "type": "bool"
        }
      ],
      "stateMutability": "view",
      "type": "function"
    },
    {
      "inputs": [],
      "name": "proxiableUUID",
      "outputs": [
        {
          "internalType": "bytes32",
          "name": "",
          "type": "bytes32"
        }
      ],
      "stateMutability": "view",
      "type": "function"
    },
    {
      "inputs": [
        {
          "internalType": "address",
          "name": "account",
          "type": "address"
        }
      ],
      "name": "removeFromWhitelist",
      "outputs": [],
      "stateMutability": "nonpayable",
      "type": "function"
    },
    {
      "inputs": [],
      "name": "renounceOwnership",
      "outputs": [],
      "stateMutability": "nonpayable",
      "type": "function"
    },
    {
      "inputs": [],
      "name": "symbol",
      "outputs": [
        {
          "internalType": "string",
          "name": "",
          "type": "string"
        }
      ],
      "stateMutability": "view",
      "type": "function"
    },
    {
      "inputs": [],
      "name": "totalSupply",
      "outputs": [
        {
          "internalType": "uint256",
          "name": "",
          "type": "uint256"
        }
      ],
      "stateMutability": "view",
      "type": "function"
    },
    {
      "inputs": [
        {
          "internalType": "address",
          "name": "to",
          "type": "address"
        },
        {
          "internalType": "uint256",
          "name": "amount",
          "type": "uint256"
        }
      ],
      "name": "transfer",
      "outputs": [
        {
          "internalType": "bool",
          "name": "",
          "type": "bool"
        }
      ],
      "stateMutability": "nonpayable",
      "type": "function"
    },
    {
      "inputs": [
        {
          "internalType": "address",
          "name": "from",
          "type": "address"
        },
        {
          "internalType": "address",
          "name": "to",
          "type": "address"
        },
        {
          "internalType": "uint256",
          "name": "amount",
          "type": "uint256"
        }
      ],
      "name": "transferFrom",
      "outputs": [
        {
          "internalType": "bool",
          "name": "",
          "type": "bool"
        }
      ],
      "stateMutability": "nonpayable",
      "type": "function"
    },
    {
      "inputs": [
        {
          "internalType": "address",
          "name": "newOwner",
          "type": "address"
        }
      ],
      "name": "transferOwnership",
      "outputs": [],
      "stateMutability": "nonpayable",
      "type": "function"
    },
    {
      "inputs": [],
      "name": "unpause",
      "outputs": [],
      "stateMutability": "nonpayable",
      "type": "function"
    },
    {
      "inputs": [
        {
          "internalType": "address",
          "name": "newImplementation",
          "type": "address"
        }
      ],
      "name": "upgradeTo",
      "outputs": [],
      "stateMutability": "nonpayable",
      "type": "function"
    },
    {
      "inputs": [
        {
          "internalType": "address",
          "name": "newImplementation",
          "type": "address"
        },
        {
          "internalType": "bytes",
          "name": "data",
          "type": "bytes"
        }
      ],
      "name": "upgradeToAndCall",
      "outputs": [],
      "stateMutability": "payable",
      "type": "function"
    }
  ],
  "bytecode": "0x60a06040523060805234801561001457600080fd5b5061001d610022565b6100e1565b600054610100900460ff161561008e5760405162461bcd60e51b815260206004820152602760248201527f496e697469616c697a61626c653a20636f6e747261637420697320696e697469604482015266616c697a696e6760c81b606482015260840160405180910390fd5b60005460ff908116146100df576000805460ff191660ff9081179091556040519081527f7f26b83ff96e1f2b6a682f133852f6798a09c465da95921460cefb38474024989060200160405180910390a15b565b6080516121ee620001196000396000818161063901528181610682015281816109cb01528181610a0b0152610a9e01526121ee6000f3fe6080604052600436106101c25760003560e01c806352d1902d116100f75780638ab1d68111610095578063a9059cbb11610064578063a9059cbb146104df578063dd62ed3e146104ff578063e43252d71461051f578063f2fde38b1461053f57600080fd5b80638ab1d681146104625780638da5cb5b1461048257806395d89b41146104aa578063a457c2d7146104bf57600080fd5b8063715018a6116100d1578063715018a61461040357806379cc6790146104185780638129fc1c146104385780638456cb591461044d57600080fd5b806352d1902d146103a05780635c975abb146103b557806370a08231146103cd57600080fd5b806339509351116101645780633f4ba83a1161013e5780633f4ba83a1461033857806340c10f191461034d57806342966c681461036d5780634f1ef2861461038d57600080fd5b806339509351146102be5780633af32abf146102de5780633f017a881461031857600080fd5b806323b872dd116101a057806323b872dd14610241578063313ce5671461026157806332cb6b0c1461027d5780633659cfe61461029c57600080fd5b806306fdde03146101c7578063095ea7b3146101f257806318160ddd14610222575b600080fd5b3480156101d357600080fd5b506101dc61055f565b6040516101e99190611c50565b60405180910390f35b3480156101fe57600080fd5b5061021261020d366004611c9f565b6105f1565b60405190151581526020016101e9565b34801561022e57600080fd5b506035545b6040519081526020016101e9565b34801561024d57600080fd5b5061021261025c366004611cc9565b61060b565b34801561026d57600080fd5b50604051601281526020016101e9565b34801561028957600080fd5b506102336a52b7d2dcc80cd2e400000081565b3480156102a857600080fd5b506102bc6102b7366004611d05565b61062f565b005b3480156102ca57600080fd5b506102126102d9366004611c9f565b610717565b3480156102ea57600080fd5b506102126102f9366004611d05565b6001600160a01b0316600090815261015f602052604090205460ff1690565b34801561032457600080fd5b506102bc610333366004611d20565b610739565b34801561034457600080fd5b506102bc61082d565b34801561035957600080fd5b506102bc610368366004611c9f565b61083f565b34801561037957600080fd5b506102bc610388366004611d95565b610977565b6102bc61039b366004611dc4565b6109c1565b3480156103ac57600080fd5b50610233610a91565b3480156103c157600080fd5b5060975460ff16610212565b3480156103d957600080fd5b506102336103e8366004611d05565b6001600160a01b031660009081526033602052604090205490565b34801561040f57600080fd5b506102bc610b44565b34801561042457600080fd5b506102bc610433366004611c9f565b610b56565b34801561044457600080fd5b506102bc610ba3565b34801561045957600080fd5b506102bc610d14565b34801561046e57600080fd5b506102bc61047d366004611d05565b610d24565b34801561048e57600080fd5b5060c9546040516001600160a01b0390911681526020016101e9565b3480156104b657600080fd5b506101dc610d84565b3480156104cb57600080fd5b506102126104da366004611c9f565b610d93565b3480156104eb57600080fd5b506102126104fa366004611c9f565b610e0e565b34801561050b57600080fd5b5061023361051a366004611e86565b610e1c565b34801561052b57600080fd5b506102bc61053a366004611d05565b610e47565b34801561054b57600080fd5b506102bc61055a366004611d05565b610eaf565b60606036805461056e90611eb9565b80601f016020809104026020016040519081016040528092919081815260200182805461059a90611eb9565b80156105e75780601f106105bc576101008083540402835291602001916105e7565b820191906000526020600020905b8154815290600101906020018083116105ca57829003601f168201915b5050505050905090565b6000336105ff818585610f25565b60019150505b92915050565b600033610619858285611049565b6106248585856110c3565b506001949350505050565b6001600160a01b037f00000000000000000000000000000000000000000000000000000000000000001630036106805760405162461bcd60e51b815260040161067790611ef3565b60405180910390fd5b7f00000000000000000000000000000000000000000000000000000000000000006001600160a01b03166106c9600080516020612172833981519152546001600160a01b031690565b6001600160a01b0316146106ef5760405162461bcd60e51b815260040161067790611f3f565b6106f881611279565b6040805160008082526020820190925261071491839190611281565b50565b6000336105ff81858561072a8383610e1c565b6107349190611fa1565b610f25565b6107416113ec565b610749611432565b60005b8181101561082857600161015f600085858581811061076d5761076d611fb4565b90506020020160208101906107829190611d05565b6001600160a01b031681526020810191909152604001600020805460ff19169115159190911790558282828181106107bc576107bc611fb4565b90506020020160208101906107d19190611d05565b6001600160a01b03167ff93f9a76c1bf3444d22400a00cb9fe990e6abe9dbb333fda48859cfee864543d600160405161080e911515815260200190565b60405180910390a28061082081611fca565b91505061074c565b505050565b610835611432565b61083d61148c565b565b6108476113ec565b61084f611432565b6a52b7d2dcc80cd2e40000008161086560355490565b61086f9190611fa1565b11156108bd5760405162461bcd60e51b815260206004820152601a60248201527f4d696e74696e672065786365656473206d617820737570706c790000000000006044820152606401610677565b6001600160a01b038216600090815261015f602052604090205460ff166109265760405162461bcd60e51b815260206004820152601760248201527f41646472657373206e6f742077686974656c69737465640000000000000000006044820152606401610677565b61093082826114de565b816001600160a01b03167f0f6798a560793a54c3bcfe86a93cde1e73087d944c0ea20544137d41213968858260405161096b91815260200190565b60405180910390a25050565b61097f6113ec565b610988816115ab565b60405181815233907fcc16f5dbb4873280815c1ee09dbd06736cffcc184412cf7a71a0fdb75d397ca5906020015b60405180910390a250565b6001600160a01b037f0000000000000000000000000000000000000000000000000000000000000000163003610a095760405162461bcd60e51b815260040161067790611ef3565b7f00000000000000000000000000000000000000000000000000000000000000006001600160a01b0316610a52600080516020612172833981519152546001600160a01b031690565b6001600160a01b031614610a785760405162461bcd60e51b815260040161067790611f3f565b610a8182611279565b610a8d82826001611281565b5050565b6000306001600160a01b037f00000000000000000000000000000000000000000000000000000000000000001614610b315760405162461bcd60e51b815260206004820152603860248201527f555550535570677261646561626c653a206d757374206e6f742062652063616c60448201527f6c6564207468726f7567682064656c656761746563616c6c00000000000000006064820152608401610677565b5060008051602061217283398151915290565b610b4c611432565b61083d60006115b5565b610b5e6113ec565b610b688282611607565b816001600160a01b03167fcc16f5dbb4873280815c1ee09dbd06736cffcc184412cf7a71a0fdb75d397ca58260405161096b91815260200190565b600054610100900460ff1615808015610bc35750600054600160ff909116105b80610bdd5750303b158015610bdd575060005460ff166001145b610c405760405162461bcd60e51b815260206004820152602e60248201527f496e697469616c697a61626c653a20636f6e747261637420697320616c72656160448201526d191e481a5b9a5d1a585b1a5e995960921b6064820152608401610677565b6000805460ff191660011790558015610c63576000805461ff0019166101001790555b610cac604051806040016040528060088152602001671053150811d3d31160c21b8152506040518060400160405280600781526020016610531511d3d31160ca1b81525061161c565b610cb461164d565b610cbc611674565b610cc46116a3565b610ccc61164d565b8015610714576000805461ff0019169055604051600181527f7f26b83ff96e1f2b6a682f133852f6798a09c465da95921460cefb38474024989060200160405180910390a150565b610d1c611432565b61083d6116d2565b610d2c6113ec565b610d34611432565b6001600160a01b038116600081815261015f60209081526040808320805460ff19169055519182527ff93f9a76c1bf3444d22400a00cb9fe990e6abe9dbb333fda48859cfee864543d91016109b6565b60606037805461056e90611eb9565b60003381610da18286610e1c565b905083811015610e015760405162461bcd60e51b815260206004820152602560248201527f45524332303a2064656372656173656420616c6c6f77616e63652062656c6f77604482015264207a65726f60d81b6064820152608401610677565b6106248286868403610f25565b6000336105ff8185856110c3565b6001600160a01b03918216600090815260346020908152604080832093909416825291909152205490565b610e4f6113ec565b610e57611432565b6001600160a01b038116600081815261015f6020908152604091829020805460ff1916600190811790915591519182527ff93f9a76c1bf3444d22400a00cb9fe990e6abe9dbb333fda48859cfee864543d91016109b6565b610eb7611432565b6001600160a01b038116610f1c5760405162461bcd60e51b815260206004820152602660248201527f4f776e61626c653a206e6577206f776e657220697320746865207a65726f206160448201526564647265737360d01b6064820152608401610677565b610714816115b5565b6001600160a01b038316610f875760405162461bcd60e51b8152602060048201526024808201527f45524332303a20617070726f76652066726f6d20746865207a65726f206164646044820152637265737360e01b6064820152608401610677565b6001600160a01b038216610fe85760405162461bcd60e51b815260206004820152602260248201527f45524332303a20617070726f766520746f20746865207a65726f206164647265604482015261737360f01b6064820152608401610677565b6001600160a01b0383811660008181526034602090815260408083209487168084529482529182902085905590518481527f8c5be1e5ebec7d5bd14f71427d1e84f3dd0314c0f7b2291e5b200ac8c7c3b925910160405180910390a3505050565b60006110558484610e1c565b905060001981146110bd57818110156110b05760405162461bcd60e51b815260206004820152601d60248201527f45524332303a20696e73756666696369656e7420616c6c6f77616e63650000006044820152606401610677565b6110bd8484848403610f25565b50505050565b6001600160a01b0383166111275760405162461bcd60e51b815260206004820152602560248201527f45524332303a207472616e736665722066726f6d20746865207a65726f206164604482015264647265737360d81b6064820152608401610677565b6001600160a01b0382166111895760405162461bcd60e51b815260206004820152602360248201527f45524332303a207472616e7366657220746f20746865207a65726f206164647260448201526265737360e81b6064820152608401610677565b61119483838361170f565b6001600160a01b0383166000908152603360205260409020548181101561120c5760405162461bcd60e51b815260206004820152602660248201527f45524332303a207472616e7366657220616d6f756e7420657863656564732062604482015265616c616e636560d01b6064820152608401610677565b6001600160a01b0380851660008181526033602052604080822086860390559286168082529083902080548601905591517fddf252ad1be2c89b69c2b068fc378daa952ba7f163c4a11628f55a4df523b3ef9061126c9086815260200190565b60405180910390a36110bd565b610714611432565b7f4910fdfa16fed3260ed0e7147f7cc6da11a60208b5b9406d12a635614ffd91435460ff16156112b457610828836117b0565b826001600160a01b03166352d1902d6040518163ffffffff1660e01b8152600401602060405180830381865afa92505050801561130e575060408051601f3d908101601f1916820190925261130b91810190611fe3565b60015b6113715760405162461bcd60e51b815260206004820152602e60248201527f45524331393637557067726164653a206e657720696d706c656d656e7461746960448201526d6f6e206973206e6f74205555505360901b6064820152608401610677565b60008051602061217283398151915281146113e05760405162461bcd60e51b815260206004820152602960248201527f45524331393637557067726164653a20756e737570706f727465642070726f786044820152681a58589b195555525160ba1b6064820152608401610677565b5061082883838361184c565b60975460ff161561083d5760405162461bcd60e51b815260206004820152601060248201526f14185d5cd8589b194e881c185d5cd95960821b6044820152606401610677565b60c9546001600160a01b0316331461083d5760405162461bcd60e51b815260206004820181905260248201527f4f776e61626c653a2063616c6c6572206973206e6f7420746865206f776e65726044820152606401610677565b611494611871565b6097805460ff191690557f5db9ee0a495bf2e6ff9c91a7834c1ba4fdd244a5e8aa4e537bd38aeae4b073aa335b6040516001600160a01b03909116815260200160405180910390a1565b6001600160a01b0382166115345760405162461bcd60e51b815260206004820152601f60248201527f45524332303a206d696e7420746f20746865207a65726f2061646472657373006044820152606401610677565b6115406000838361170f565b80603560008282546115529190611fa1565b90915550506001600160a01b0382166000818152603360209081526040808320805486019055518481527fddf252ad1be2c89b69c2b068fc378daa952ba7f163c4a11628f55a4df523b3ef910160405180910390a35050565b61071433826118ba565b60c980546001600160a01b038381166001600160a01b0319831681179093556040519116919082907f8be0079c531659141344cd1fd0a4f28419497f9722a3daafe3b4186f6b6457e090600090a35050565b611612823383611049565b610a8d82826118ba565b600054610100900460ff166116435760405162461bcd60e51b815260040161067790611ffc565b610a8d82826119fa565b600054610100900460ff1661083d5760405162461bcd60e51b815260040161067790611ffc565b600054610100900460ff1661169b5760405162461bcd60e51b815260040161067790611ffc565b61083d611a3a565b600054610100900460ff166116ca5760405162461bcd60e51b815260040161067790611ffc565b61083d611a6d565b6116da6113ec565b6097805460ff191660011790557f62e78cea01bee320cd4e420270b5ea74000d11b0c9f74754ebdbfc544b05a2586114c13390565b6117176113ec565b6001600160a01b0383161580159061173757506001600160a01b03821615155b15610828576001600160a01b038316600090815261015f602052604090205460ff166117765760405163ad7acb4760e01b815260040160405180910390fd5b6001600160a01b038216600090815261015f602052604090205460ff1661082857604051631186436560e01b815260040160405180910390fd5b6001600160a01b0381163b61181d5760405162461bcd60e51b815260206004820152602d60248201527f455243313936373a206e657720696d706c656d656e746174696f6e206973206e60448201526c1bdd08184818dbdb9d1c9858dd609a1b6064820152608401610677565b60008051602061217283398151915280546001600160a01b0319166001600160a01b0392909216919091179055565b61185583611a9d565b6000825111806118625750805b15610828576110bd8383611add565b60975460ff1661083d5760405162461bcd60e51b815260206004820152601460248201527314185d5cd8589b194e881b9bdd081c185d5cd95960621b6044820152606401610677565b6001600160a01b03821661191a5760405162461bcd60e51b815260206004820152602160248201527f45524332303a206275726e2066726f6d20746865207a65726f206164647265736044820152607360f81b6064820152608401610677565b6119268260008361170f565b6001600160a01b0382166000908152603360205260409020548181101561199a5760405162461bcd60e51b815260206004820152602260248201527f45524332303a206275726e20616d6f756e7420657863656564732062616c616e604482015261636560f01b6064820152608401610677565b6001600160a01b03831660008181526033602090815260408083208686039055603580548790039055518581529192917fddf252ad1be2c89b69c2b068fc378daa952ba7f163c4a11628f55a4df523b3ef910160405180910390a3505050565b600054610100900460ff16611a215760405162461bcd60e51b815260040161067790611ffc565b6036611a2d8382612095565b5060376108288282612095565b600054610100900460ff16611a615760405162461bcd60e51b815260040161067790611ffc565b6097805460ff19169055565b600054610100900460ff16611a945760405162461bcd60e51b815260040161067790611ffc565b61083d336115b5565b611aa6816117b0565b6040516001600160a01b038216907fbc7cd75a20ee27fd9adebab32041f755214dbc6bffa90cc0225b39da2e5c2d3b90600090a250565b6060611b02838360405180606001604052806027815260200161219260279139611b09565b9392505050565b6060600080856001600160a01b031685604051611b269190612155565b600060405180830381855af49150503d8060008114611b61576040519150601f19603f3d011682016040523d82523d6000602084013e611b66565b606091505b5091509150611b7786838387611b81565b9695505050505050565b60608315611bf0578251600003611be9576001600160a01b0385163b611be95760405162461bcd60e51b815260206004820152601d60248201527f416464726573733a2063616c6c20746f206e6f6e2d636f6e74726163740000006044820152606401610677565b5081611bfa565b611bfa8383611c02565b949350505050565b815115611c125781518083602001fd5b8060405162461bcd60e51b81526004016106779190611c50565b60005b83811015611c47578181015183820152602001611c2f565b50506000910152565b6020815260008251806020840152611c6f816040850160208701611c2c565b601f01601f19169190910160400192915050565b80356001600160a01b0381168114611c9a57600080fd5b919050565b60008060408385031215611cb257600080fd5b611cbb83611c83565b946020939093013593505050565b600080600060608486031215611cde57600080fd5b611ce784611c83565b9250611cf560208501611c83565b9150604084013590509250925092565b600060208284031215611d1757600080fd5b611b0282611c83565b60008060208385031215611d3357600080fd5b823567ffffffffffffffff80821115611d4b57600080fd5b818501915085601f830112611d5f57600080fd5b813581811115611d6e57600080fd5b8660208260051b8501011115611d8357600080fd5b60209290920196919550909350505050565b600060208284031215611da757600080fd5b5035919050565b634e487b7160e01b600052604160045260246000fd5b60008060408385031215611dd757600080fd5b611de083611c83565b9150602083013567ffffffffffffffff80821115611dfd57600080fd5b818501915085601f830112611e1157600080fd5b813581811115611e2357611e23611dae565b604051601f8201601f19908116603f01168101908382118183101715611e4b57611e4b611dae565b81604052828152886020848701011115611e6457600080fd5b8260208601602083013760006020848301015280955050505050509250929050565b60008060408385031215611e9957600080fd5b611ea283611c83565b9150611eb060208401611c83565b90509250929050565b600181811c90821680611ecd57607f821691505b602082108103611eed57634e487b7160e01b600052602260045260246000fd5b50919050565b6020808252602c908201527f46756e6374696f6e206d7573742062652063616c6c6564207468726f7567682060408201526b19195b1959d85d1958d85b1b60a21b606082015260800190565b6020808252602c908201527f46756e6374696f6e206d7573742062652063616c6c6564207468726f7567682060408201526b6163746976652070726f787960a01b606082015260800190565b634e487b7160e01b600052601160045260246000fd5b8082018082111561060557610605611f8b565b634e487b7160e01b600052603260045260246000fd5b600060018201611fdc57611fdc611f8b565b5060010190565b600060208284031215611ff557600080fd5b5051919050565b6020808252602b908201527f496e697469616c697a61626c653a20636f6e7472616374206973206e6f74206960408201526a6e697469616c697a696e6760a81b606082015260800190565b601f82111561082857600081815260208120601f850160051c8101602086101561206e5750805b601f850160051c820191505b8181101561208d5782815560010161207a565b505050505050565b815167ffffffffffffffff8111156120af576120af611dae565b6120c3816120bd8454611eb9565b84612047565b602080601f8311600181146120f857600084156120e05750858301515b600019600386901b1c1916600185901b17855561208d565b600085815260208120601f198616915b8281101561212757888601518255948401946001909101908401612108565b50858210156121455787850151600019600388901b60f8161c191681555b5050505050600190811b01905550565b60008251612167818460208701611c2c565b919091019291505056fe360894a13ba1a3210667c828492db98dca3e2076cc3735a920a3ca505d382bbc416464726573733a206c6f772d6c6576656c2064656c65676174652063616c6c206661696c6564a264697066735822122095397850044be1aad7812f6f66bdf7a269586777f47f3b0f5b4c64d8bd9832b764736f6c63430008130033",
  "linkReferences": {},
  "deployedLinkReferences": {}
}